{
  "_format": "hh-sol-artifact-1",
  "contractName": "EcoSoulNFT",
  "sourceName": "contracts/EcoSoulNFT.sol",
  "abi": [
    {
      "inputs": [],
      "stateMutability": "nonpayable",
      "type": "constructor"
    },
    {
      "inputs": [
        {
          "internalType": "address",
          "name": "sender",
          "type": "address"
        },
        {
          "internalType": "uint256",
          "name": "tokenId",
          "type": "uint256"
        },
        {
          "internalType": "address",
          "name": "owner",
          "type": "address"
        }
      ],
      "name": "ERC721IncorrectOwner",
      "type": "error"
    },
    {
      "inputs": [
        {
          "internalType": "address",
          "name": "operator",
          "type": "address"
        },
        {
          "internalType": "uint256",
          "name": "tokenId",
          "type": "uint256"
        }
      ],
      "name": "ERC721InsufficientApproval",
      "type": "error"
    },
    {
      "inputs": [
        {
          "internalType": "address",
          "name": "approver",
          "type": "address"
        }
      ],
      "name": "ERC721InvalidApprover",
      "type": "error"
    },
    {
      "inputs": [
        {
          "internalType": "address",
          "name": "operator",
          "type": "address"
        }
      ],
      "name": "ERC721InvalidOperator",
      "type": "error"
    },
    {
      "inputs": [
        {
          "internalType": "address",
          "name": "owner",
          "type": "address"
        }
      ],
      "name": "ERC721InvalidOwner",
      "type": "error"
    },
    {
      "inputs": [
        {
          "internalType": "address",
          "name": "receiver",
          "type": "address"
        }
      ],
      "name": "ERC721InvalidReceiver",
      "type": "error"
    },
    {
      "inputs": [
        {
          "internalType": "address",
          "name": "sender",
          "type": "address"
        }
      ],
      "name": "ERC721InvalidSender",
      "type": "error"
    },
    {
      "inputs": [
        {
          "internalType": "uint256",
          "name": "tokenId",
          "type": "uint256"
        }
      ],
      "name": "ERC721NonexistentToken",
      "type": "error"
    },
    {
      "inputs": [
        {
          "internalType": "address",
          "name": "owner",
          "type": "address"
        }
      ],
      "name": "OwnableInvalidOwner",
      "type": "error"
    },
    {
      "inputs": [
        {
          "internalType": "address",
          "name": "account",
          "type": "address"
        }
      ],
      "name": "OwnableUnauthorizedAccount",
      "type": "error"
    },
    {
      "anonymous": false,
      "inputs": [
        {
          "indexed": true,
          "internalType": "address",
          "name": "owner",
          "type": "address"
        },
        {
          "indexed": true,
          "internalType": "address",
          "name": "approved",
          "type": "address"
        },
        {
          "indexed": true,
          "internalType": "uint256",
          "name": "tokenId",
          "type": "uint256"
        }
      ],
      "name": "Approval",
      "type": "event"
    },
    {
      "anonymous": false,
      "inputs": [
        {
          "indexed": true,
          "internalType": "address",
          "name": "owner",
          "type": "address"
        },
        {
          "indexed": true,
          "internalType": "address",
          "name": "operator",
          "type": "address"
        },
        {
          "indexed": false,
          "internalType": "bool",
          "name": "approved",
          "type": "bool"
        }
      ],
      "name": "ApprovalForAll",
      "type": "event"
    },
    {
      "anonymous": false,
      "inputs": [
        {
          "indexed": true,
          "internalType": "address",
          "name": "owner",
          "type": "address"
        },
        {
          "indexed": true,
          "internalType": "uint256",
          "name": "tokenId",
          "type": "uint256"
        }
      ],
      "name": "NFTMinted",
      "type": "event"
    },
    {
      "anonymous": false,
      "inputs": [
        {
          "indexed": true,
          "internalType": "uint256",
          "name": "tokenId",
          "type": "uint256"
        },
        {
          "indexed": false,
          "internalType": "string",
          "name": "weatherCondition",
          "type": "string"
        },
        {
          "indexed": false,
          "internalType": "uint256",
          "name": "ecoScore",
          "type": "uint256"
        }
      ],
      "name": "NFTUpdated",
      "type": "event"
    },
    {
      "anonymous": false,
      "inputs": [
        {
          "indexed": true,
          "internalType": "address",
          "name": "previousOwner",
          "type": "address"
        },
        {
          "indexed": true,
          "internalType": "address",
          "name": "newOwner",
          "type": "address"
        }
      ],
      "name": "OwnershipTransferred",
      "type": "event"
    },
    {
      "anonymous": false,
      "inputs": [
        {
          "indexed": true,
          "internalType": "address",
          "name": "from",
          "type": "address"
        },
        {
          "indexed": true,
          "internalType": "address",
          "name": "to",
          "type": "address"
        },
        {
          "indexed": true,
          "internalType": "uint256",
          "name": "tokenId",
          "type": "uint256"
        }
      ],
      "name": "Transfer",
      "type": "event"
    },
    {
      "inputs": [
        {
          "internalType": "address",
          "name": "to",
          "type": "address"
        },
        {
          "internalType": "uint256",
          "name": "tokenId",
          "type": "uint256"
        }
      ],
      "name": "approve",
      "outputs": [],
      "stateMutability": "nonpayable",
      "type": "function"
    },
    {
      "inputs": [
        {
          "internalType": "address",
          "name": "owner",
          "type": "address"
        }
      ],
      "name": "balanceOf",
      "outputs": [
        {
          "internalType": "uint256",
          "name": "",
          "type": "uint256"
        }
      ],
      "stateMutability": "view",
      "type": "function"
    },
    {
      "inputs": [
        {
          "internalType": "uint256",
          "name": "tokenId",
          "type": "uint256"
        }
      ],
      "name": "getApproved",
      "outputs": [
        {
          "internalType": "address",
          "name": "",
          "type": "address"
        }
      ],
      "stateMutability": "view",
      "type": "function"
    },
    {
      "inputs": [
        {
          "internalType": "uint256",
          "name": "tokenId",
          "type": "uint256"
        }
      ],
      "name": "getNFTState",
      "outputs": [
        {
          "components": [
            {
              "internalType": "uint256",
              "name": "ecoScore",
              "type": "uint256"
            },
            {
              "internalType": "string",
              "name": "weatherCondition",
              "type": "string"
            },
            {
              "internalType": "uint256",
              "name": "lastUpdate",
              "type": "uint256"
            }
          ],
          "internalType": "struct EcoSoulNFT.NFTState",
          "name": "",
          "type": "tuple"
        }
      ],
      "stateMutability": "view",
      "type": "function"
    },
    {
      "inputs": [
        {
          "internalType": "address",
          "name": "owner",
          "type": "address"
        },
        {
          "internalType": "address",
          "name": "operator",
          "type": "address"
        }
      ],
      "name": "isApprovedForAll",
      "outputs": [
        {
          "internalType": "bool",
          "name": "",
          "type": "bool"
        }
      ],
      "stateMutability": "view",
      "type": "function"
    },
    {
      "inputs": [],
      "name": "mint",
      "outputs": [],
      "stateMutability": "nonpayable",
      "type": "function"
    },
    {
      "inputs": [],
      "name": "name",
      "outputs": [
        {
          "internalType": "string",
          "name": "",
          "type": "string"
        }
      ],
      "stateMutability": "view",
      "type": "function"
    },
    {
      "inputs": [
        {
          "internalType": "uint256",
          "name": "",
          "type": "uint256"
        }
      ],
      "name": "nftStates",
      "outputs": [
        {
          "internalType": "uint256",
          "name": "ecoScore",
          "type": "uint256"
        },
        {
          "internalType": "string",
          "name": "weatherCondition",
          "type": "string"
        },
        {
          "internalType": "uint256",
          "name": "lastUpdate",
          "type": "uint256"
        }
      ],
      "stateMutability": "view",
      "type": "function"
    },
    {
      "inputs": [],
      "name": "owner",
      "outputs": [
        {
          "internalType": "address",
          "name": "",
          "type": "address"
        }
      ],
      "stateMutability": "view",
      "type": "function"
    },
    {
      "inputs": [
        {
          "internalType": "uint256",
          "name": "tokenId",
          "type": "uint256"
        }
      ],
      "name": "ownerOf",
      "outputs": [
        {
          "internalType": "address",
          "name": "",
          "type": "address"
        }
      ],
      "stateMutability": "view",
      "type": "function"
    },
    {
      "inputs": [],
      "name": "renounceOwnership",
      "outputs": [],
      "stateMutability": "nonpayable",
      "type": "function"
    },
    {
      "inputs": [
        {
          "internalType": "address",
          "name": "from",
          "type": "address"
        },
        {
          "internalType": "address",
          "name": "to",
          "type": "address"
        },
        {
          "internalType": "uint256",
          "name": "tokenId",
          "type": "uint256"
        }
      ],
      "name": "safeTransferFrom",
      "outputs": [],
      "stateMutability": "nonpayable",
      "type": "function"
    },
    {
      "inputs": [
        {
          "internalType": "address",
          "name": "from",
          "type": "address"
        },
        {
          "internalType": "address",
          "name": "to",
          "type": "address"
        },
        {
          "internalType": "uint256",
          "name": "tokenId",
          "type": "uint256"
        },
        {
          "internalType": "bytes",
          "name": "data",
          "type": "bytes"
        }
      ],
      "name": "safeTransferFrom",
      "outputs": [],
      "stateMutability": "nonpayable",
      "type": "function"
    },
    {
      "inputs": [
        {
          "internalType": "address",
          "name": "operator",
          "type": "address"
        },
        {
          "internalType": "bool",
          "name": "approved",
          "type": "bool"
        }
      ],
      "name": "setApprovalForAll",
      "outputs": [],
      "stateMutability": "nonpayable",
      "type": "function"
    },
    {
      "inputs": [
        {
          "internalType": "string",
          "name": "baseURI",
          "type": "string"
        }
      ],
      "name": "setBaseURI",
      "outputs": [],
      "stateMutability": "nonpayable",
      "type": "function"
    },
    {
      "inputs": [
        {
          "internalType": "bytes4",
          "name": "interfaceId",
          "type": "bytes4"
        }
      ],
      "name": "supportsInterface",
      "outputs": [
        {
          "internalType": "bool",
          "name": "",
          "type": "bool"
        }
      ],
      "stateMutability": "view",
      "type": "function"
    },
    {
      "inputs": [],
      "name": "symbol",
      "outputs": [
        {
          "internalType": "string",
          "name": "",
          "type": "string"
        }
      ],
      "stateMutability": "view",
      "type": "function"
    },
    {
      "inputs": [
        {
          "internalType": "uint256",
          "name": "tokenId",
          "type": "uint256"
        }
      ],
      "name": "tokenURI",
      "outputs": [
        {
          "internalType": "string",
          "name": "",
          "type": "string"
        }
      ],
      "stateMutability": "view",
      "type": "function"
    },
    {
      "inputs": [
        {
          "internalType": "address",
          "name": "from",
          "type": "address"
        },
        {
          "internalType": "address",
          "name": "to",
          "type": "address"
        },
        {
          "internalType": "uint256",
          "name": "tokenId",
          "type": "uint256"
        }
      ],
      "name": "transferFrom",
      "outputs": [],
      "stateMutability": "nonpayable",
      "type": "function"
    },
    {
      "inputs": [
        {
          "internalType": "address",
          "name": "newOwner",
          "type": "address"
        }
      ],
      "name": "transferOwnership",
      "outputs": [],
      "stateMutability": "nonpayable",
      "type": "function"
    },
    {
      "inputs": [
        {
          "internalType": "uint256",
          "name": "tokenId",
          "type": "uint256"
        },
        {
          "internalType": "string",
          "name": "weatherCondition",
          "type": "string"
        },
        {
          "internalType": "uint256",
          "name": "ecoScore",
          "type": "uint256"
        }
      ],
      "name": "updateNFTState",
      "outputs": [],
      "stateMutability": "nonpayable",
      "type": "function"
    }
  ],
  "bytecode": "0x60806040523480156200001157600080fd5b50336040518060400160405280600781526020017f45636f536f756c000000000000000000000000000000000000000000000000008152506040518060400160405280600381526020017f45434f000000000000000000000000000000000000000000000000000000000081525081600090816200009091906200047a565b508060019081620000a291906200047a565b505050600073ffffffffffffffffffffffffffffffffffffffff168173ffffffffffffffffffffffffffffffffffffffff16036200011a5760006040517f1e4fbdf7000000000000000000000000000000000000000000000000000000008152600401620001119190620005a6565b60405180910390fd5b6200012b816200013a60201b60201c565b506000600881905550620005c3565b6000600660009054906101000a900473ffffffffffffffffffffffffffffffffffffffff16905081600660006101000a81548173ffffffffffffffffffffffffffffffffffffffff021916908373ffffffffffffffffffffffffffffffffffffffff1602179055508173ffffffffffffffffffffffffffffffffffffffff168173ffffffffffffffffffffffffffffffffffffffff167f8be0079c531659141344cd1fd0a4f28419497f9722a3daafe3b4186f6b6457e060405160405180910390a35050565b600081519050919050565b7f4e487b7100000000000000000000000000000000000000000000000000000000600052604160045260246000fd5b7f4e487b7100000000000000000000000000000000000000000000000000000000600052602260045260246000fd5b600060028204905060018216806200028257607f821691505b6020821081036200029857620002976200023a565b5b50919050565b60008190508160005260206000209050919050565b60006020601f8301049050919050565b600082821b905092915050565b600060088302620003027fffffffffffffffffffffffffffffffffffffffffffffffffffffffffffffffff82620002c3565b6200030e8683620002c3565b95508019841693508086168417925050509392505050565b6000819050919050565b6000819050919050565b60006200035b620003556200034f8462000326565b62000330565b62000326565b9050919050565b6000819050919050565b62000377836200033a565b6200038f620003868262000362565b848454620002d0565b825550505050565b600090565b620003a662000397565b620003b38184846200036c565b505050565b5b81811015620003db57620003cf6000826200039c565b600181019050620003b9565b5050565b601f8211156200042a57620003f4816200029e565b620003ff84620002b3565b810160208510156200040f578190505b620004276200041e85620002b3565b830182620003b8565b50505b505050565b600082821c905092915050565b60006200044f600019846008026200042f565b1980831691505092915050565b60006200046a83836200043c565b9150826002028217905092915050565b620004858262000200565b67ffffffffffffffff811115620004a157620004a06200020b565b5b620004ad825462000269565b620004ba828285620003df565b600060209050601f831160018114620004f25760008415620004dd578287015190505b620004e985826200045c565b86555062000559565b601f19841662000502866200029e565b60005b828110156200052c5784890151825560018201915060208501945060208101905062000505565b868310156200054c578489015162000548601f8916826200043c565b8355505b6001600288020188555050505b505050505050565b600073ffffffffffffffffffffffffffffffffffffffff82169050919050565b60006200058e8262000561565b9050919050565b620005a08162000581565b82525050565b6000602082019050620005bd600083018462000595565b92915050565b612d3f80620005d36000396000f3fe608060405234801561001057600080fd5b50600436106101375760003560e01c80636352211e116100b857806395d89b411161007c57806395d89b411461033a578063a22cb46514610358578063b88d4fde14610374578063c87b56dd14610390578063e985e9c5146103c0578063f2fde38b146103f057610137565b80636352211e1461028057806370a08231146102b0578063715018a6146102e05780637447bb04146102ea5780638da5cb5b1461031c57610137565b80631249c58b116100ff5780631249c58b146101f25780631ece83b0146101fc57806323b872dd1461022c57806342842e0e1461024857806355f804b31461026457610137565b806301ffc9a71461013c57806302ddb9d91461016c57806306fdde0314610188578063081812fc146101a6578063095ea7b3146101d6575b600080fd5b61015660048036038101906101519190611f23565b61040c565b6040516101639190611f6b565b60405180910390f35b61018660048036038101906101819190612102565b6104ee565b005b610190610606565b60405161019d91906121f0565b60405180910390f35b6101c060048036038101906101bb9190612212565b610698565b6040516101cd9190612280565b60405180910390f35b6101f060048036038101906101eb91906122c7565b6106b4565b005b6101fa6106ca565b005b61021660048036038101906102119190612212565b6107de565b60405161022391906123b0565b60405180910390f35b610246600480360381019061024191906123d2565b610928565b005b610262600480360381019061025d91906123d2565b610a2a565b005b61027e60048036038101906102799190612425565b610a4a565b005b61029a60048036038101906102959190612212565b610a65565b6040516102a79190612280565b60405180910390f35b6102ca60048036038101906102c5919061246e565b610a77565b6040516102d791906124aa565b60405180910390f35b6102e8610b31565b005b61030460048036038101906102ff9190612212565b610b45565b604051610313939291906124c5565b60405180910390f35b610324610bf7565b6040516103319190612280565b60405180910390f35b610342610c21565b60405161034f91906121f0565b60405180910390f35b610372600480360381019061036d919061252f565b610cb3565b005b61038e60048036038101906103899190612610565b610cc9565b005b6103aa60048036038101906103a59190612212565b610cee565b6040516103b791906121f0565b60405180910390f35b6103da60048036038101906103d59190612693565b610d57565b6040516103e79190611f6b565b60405180910390f35b61040a6004803603810190610405919061246e565b610deb565b005b60007f80ac58cd000000000000000000000000000000000000000000000000000000007bffffffffffffffffffffffffffffffffffffffffffffffffffffffff1916827bffffffffffffffffffffffffffffffffffffffffffffffffffffffff191614806104d757507f5b5e139f000000000000000000000000000000000000000000000000000000007bffffffffffffffffffffffffffffffffffffffffffffffffffffffff1916827bffffffffffffffffffffffffffffffffffffffffffffffffffffffff1916145b806104e757506104e682610e71565b5b9050919050565b6104f6610edb565b600073ffffffffffffffffffffffffffffffffffffffff1661051784610f62565b73ffffffffffffffffffffffffffffffffffffffff160361056d576040517f08c379a00000000000000000000000000000000000000000000000000000000081526004016105649061271f565b60405180910390fd5b81600760008581526020019081526020016000206001019081610590919061294b565b50806007600085815260200190815260200160002060000181905550426007600085815260200190815260200160002060020181905550827fcb92025fb07e9a68e47a0b11c8c3639808fea95037fedf50d82533aabf4a668a83836040516105f9929190612a1d565b60405180910390a2505050565b6060600080546106159061276e565b80601f01602080910402602001604051908101604052809291908181526020018280546106419061276e565b801561068e5780601f106106635761010080835404028352916020019161068e565b820191906000526020600020905b81548152906001019060200180831161067157829003601f168201915b5050505050905090565b60006106a382610f9f565b506106ad82611027565b9050919050565b6106c682826106c1611064565b61106c565b5050565b60006008549050600860008154809291906106e490612a7c565b91905055506106f3338261107e565b60006040518060400160405280600581526020017f73756e6e79000000000000000000000000000000000000000000000000000000815250905060006107388261109c565b905060405180606001604052808281526020018381526020014281525060076000858152602001908152602001600020600082015181600001556020820151816001019081610787919061294b565b5060408201518160020155905050823373ffffffffffffffffffffffffffffffffffffffff167f4cc0a9c4a99ddc700de1af2c9f916a7cbfdb71f14801ccff94061ad1ef8a804060405160405180910390a3505050565b6107e6611e96565b600073ffffffffffffffffffffffffffffffffffffffff1661080783610f62565b73ffffffffffffffffffffffffffffffffffffffff160361085d576040517f08c379a00000000000000000000000000000000000000000000000000000000081526004016108549061271f565b60405180910390fd5b60076000838152602001908152602001600020604051806060016040529081600082015481526020016001820180546108959061276e565b80601f01602080910402602001604051908101604052809291908181526020018280546108c19061276e565b801561090e5780601f106108e35761010080835404028352916020019161090e565b820191906000526020600020905b8154815290600101906020018083116108f157829003601f168201915b505050505081526020016002820154815250509050919050565b600073ffffffffffffffffffffffffffffffffffffffff168273ffffffffffffffffffffffffffffffffffffffff160361099a5760006040517f64a0ae920000000000000000000000000000000000000000000000000000000081526004016109919190612280565b60405180910390fd5b60006109ae83836109a9611064565b61117c565b90508373ffffffffffffffffffffffffffffffffffffffff168173ffffffffffffffffffffffffffffffffffffffff1614610a24578382826040517f64283d7b000000000000000000000000000000000000000000000000000000008152600401610a1b93929190612ac4565b60405180910390fd5b50505050565b610a4583838360405180602001604052806000815250610cc9565b505050565b610a52610edb565b8060099081610a61919061294b565b5050565b6000610a7082610f9f565b9050919050565b60008073ffffffffffffffffffffffffffffffffffffffff168273ffffffffffffffffffffffffffffffffffffffff1603610aea5760006040517f89c62b64000000000000000000000000000000000000000000000000000000008152600401610ae19190612280565b60405180910390fd5b600360008373ffffffffffffffffffffffffffffffffffffffff1673ffffffffffffffffffffffffffffffffffffffff168152602001908152602001600020549050919050565b610b39610edb565b610b436000611396565b565b6007602052806000526040600020600091509050806000015490806001018054610b6e9061276e565b80601f0160208091040260200160405190810160405280929190818152602001828054610b9a9061276e565b8015610be75780601f10610bbc57610100808354040283529160200191610be7565b820191906000526020600020905b815481529060010190602001808311610bca57829003601f168201915b5050505050908060020154905083565b6000600660009054906101000a900473ffffffffffffffffffffffffffffffffffffffff16905090565b606060018054610c309061276e565b80601f0160208091040260200160405190810160405280929190818152602001828054610c5c9061276e565b8015610ca95780601f10610c7e57610100808354040283529160200191610ca9565b820191906000526020600020905b815481529060010190602001808311610c8c57829003601f168201915b5050505050905090565b610cc5610cbe611064565b838361145c565b5050565b610cd4848484610928565b610ce8610cdf611064565b858585856115cb565b50505050565b6060610cf982610f9f565b506000610d0461177c565b90506000815111610d245760405180602001604052806000815250610d4f565b80610d2e8461180e565b604051602001610d3f929190612b37565b6040516020818303038152906040525b915050919050565b6000600560008473ffffffffffffffffffffffffffffffffffffffff1673ffffffffffffffffffffffffffffffffffffffff16815260200190815260200160002060008373ffffffffffffffffffffffffffffffffffffffff1673ffffffffffffffffffffffffffffffffffffffff16815260200190815260200160002060009054906101000a900460ff16905092915050565b610df3610edb565b600073ffffffffffffffffffffffffffffffffffffffff168173ffffffffffffffffffffffffffffffffffffffff1603610e655760006040517f1e4fbdf7000000000000000000000000000000000000000000000000000000008152600401610e5c9190612280565b60405180910390fd5b610e6e81611396565b50565b60007f01ffc9a7000000000000000000000000000000000000000000000000000000007bffffffffffffffffffffffffffffffffffffffffffffffffffffffff1916827bffffffffffffffffffffffffffffffffffffffffffffffffffffffff1916149050919050565b610ee3611064565b73ffffffffffffffffffffffffffffffffffffffff16610f01610bf7565b73ffffffffffffffffffffffffffffffffffffffff1614610f6057610f24611064565b6040517f118cdaa7000000000000000000000000000000000000000000000000000000008152600401610f579190612280565b60405180910390fd5b565b60006002600083815260200190815260200160002060009054906101000a900473ffffffffffffffffffffffffffffffffffffffff169050919050565b600080610fab83610f62565b9050600073ffffffffffffffffffffffffffffffffffffffff168173ffffffffffffffffffffffffffffffffffffffff160361101e57826040517f7e27328900000000000000000000000000000000000000000000000000000000815260040161101591906124aa565b60405180910390fd5b80915050919050565b60006004600083815260200190815260200160002060009054906101000a900473ffffffffffffffffffffffffffffffffffffffff169050919050565b600033905090565b61107983838360016118dc565b505050565b611098828260405180602001604052806000815250611aa1565b5050565b600080606490506000838051906020012090506040518060400160405280600581526020017f73756e6e790000000000000000000000000000000000000000000000000000008152508051906020012081036111125760646078836111019190612b5b565b61110b9190612bcc565b9150611172565b6040518060400160405280600581526020017f7261696e790000000000000000000000000000000000000000000000000000008152508051906020012081036111715760646096836111649190612b5b565b61116e9190612bcc565b91505b5b8192505050919050565b60008061118884610f62565b9050600073ffffffffffffffffffffffffffffffffffffffff168373ffffffffffffffffffffffffffffffffffffffff16146111ca576111c9818486611ac5565b5b600073ffffffffffffffffffffffffffffffffffffffff168173ffffffffffffffffffffffffffffffffffffffff161461125b5761120c6000856000806118dc565b6001600360008373ffffffffffffffffffffffffffffffffffffffff1673ffffffffffffffffffffffffffffffffffffffff168152602001908152602001600020600082825403925050819055505b600073ffffffffffffffffffffffffffffffffffffffff168573ffffffffffffffffffffffffffffffffffffffff16146112de576001600360008773ffffffffffffffffffffffffffffffffffffffff1673ffffffffffffffffffffffffffffffffffffffff168152602001908152602001600020600082825401925050819055505b846002600086815260200190815260200160002060006101000a81548173ffffffffffffffffffffffffffffffffffffffff021916908373ffffffffffffffffffffffffffffffffffffffff160217905550838573ffffffffffffffffffffffffffffffffffffffff168273ffffffffffffffffffffffffffffffffffffffff167fddf252ad1be2c89b69c2b068fc378daa952ba7f163c4a11628f55a4df523b3ef60405160405180910390a4809150509392505050565b6000600660009054906101000a900473ffffffffffffffffffffffffffffffffffffffff16905081600660006101000a81548173ffffffffffffffffffffffffffffffffffffffff021916908373ffffffffffffffffffffffffffffffffffffffff1602179055508173ffffffffffffffffffffffffffffffffffffffff168173ffffffffffffffffffffffffffffffffffffffff167f8be0079c531659141344cd1fd0a4f28419497f9722a3daafe3b4186f6b6457e060405160405180910390a35050565b600073ffffffffffffffffffffffffffffffffffffffff168273ffffffffffffffffffffffffffffffffffffffff16036114cd57816040517f5b08ba180000000000000000000000000000000000000000000000000000000081526004016114c49190612280565b60405180910390fd5b80600560008573ffffffffffffffffffffffffffffffffffffffff1673ffffffffffffffffffffffffffffffffffffffff16815260200190815260200160002060008473ffffffffffffffffffffffffffffffffffffffff1673ffffffffffffffffffffffffffffffffffffffff16815260200190815260200160002060006101000a81548160ff0219169083151502179055508173ffffffffffffffffffffffffffffffffffffffff168373ffffffffffffffffffffffffffffffffffffffff167f17307eab39ab6107e8899845ad3d59bd9653f200f220920489ca2b5937696c31836040516115be9190611f6b565b60405180910390a3505050565b60008373ffffffffffffffffffffffffffffffffffffffff163b1115611775578273ffffffffffffffffffffffffffffffffffffffff1663150b7a02868685856040518563ffffffff1660e01b815260040161162a9493929190612c52565b6020604051808303816000875af192505050801561166657506040513d601f19601f820116820180604052508101906116639190612cb3565b60015b6116ea573d8060008114611696576040519150601f19603f3d011682016040523d82523d6000602084013e61169b565b606091505b5060008151036116e257836040517f64a0ae920000000000000000000000000000000000000000000000000000000081526004016116d99190612280565b60405180910390fd5b805181602001fd5b63150b7a0260e01b7bffffffffffffffffffffffffffffffffffffffffffffffffffffffff1916817bffffffffffffffffffffffffffffffffffffffffffffffffffffffff19161461177357836040517f64a0ae9200000000000000000000000000000000000000000000000000000000815260040161176a9190612280565b60405180910390fd5b505b5050505050565b60606009805461178b9061276e565b80601f01602080910402602001604051908101604052809291908181526020018280546117b79061276e565b80156118045780601f106117d957610100808354040283529160200191611804565b820191906000526020600020905b8154815290600101906020018083116117e757829003601f168201915b5050505050905090565b60606000600161181d84611b89565b01905060008167ffffffffffffffff81111561183c5761183b611fd7565b5b6040519080825280601f01601f19166020018201604052801561186e5781602001600182028036833780820191505090505b509050600082602001820190505b6001156118d1578080600190039150507f3031323334353637383961626364656600000000000000000000000000000000600a86061a8153600a85816118c5576118c4612b9d565b5b0494506000850361187c575b819350505050919050565b80806119155750600073ffffffffffffffffffffffffffffffffffffffff168273ffffffffffffffffffffffffffffffffffffffff1614155b15611a4957600061192584610f9f565b9050600073ffffffffffffffffffffffffffffffffffffffff168373ffffffffffffffffffffffffffffffffffffffff161415801561199057508273ffffffffffffffffffffffffffffffffffffffff168173ffffffffffffffffffffffffffffffffffffffff1614155b80156119a357506119a18184610d57565b155b156119e557826040517fa9fbf51f0000000000000000000000000000000000000000000000000000000081526004016119dc9190612280565b60405180910390fd5b8115611a4757838573ffffffffffffffffffffffffffffffffffffffff168273ffffffffffffffffffffffffffffffffffffffff167f8c5be1e5ebec7d5bd14f71427d1e84f3dd0314c0f7b2291e5b200ac8c7c3b92560405160405180910390a45b505b836004600085815260200190815260200160002060006101000a81548173ffffffffffffffffffffffffffffffffffffffff021916908373ffffffffffffffffffffffffffffffffffffffff16021790555050505050565b611aab8383611cdc565b611ac0611ab6611064565b60008585856115cb565b505050565b611ad0838383611dd5565b611b8457600073ffffffffffffffffffffffffffffffffffffffff168373ffffffffffffffffffffffffffffffffffffffff1603611b4557806040517f7e273289000000000000000000000000000000000000000000000000000000008152600401611b3c91906124aa565b60405180910390fd5b81816040517f177e802f000000000000000000000000000000000000000000000000000000008152600401611b7b929190612ce0565b60405180910390fd5b505050565b600080600090507a184f03e93ff9f4daa797ed6e38ed64bf6a1f0100000000000000008310611be7577a184f03e93ff9f4daa797ed6e38ed64bf6a1f0100000000000000008381611bdd57611bdc612b9d565b5b0492506040810190505b6d04ee2d6d415b85acef81000000008310611c24576d04ee2d6d415b85acef81000000008381611c1a57611c19612b9d565b5b0492506020810190505b662386f26fc100008310611c5357662386f26fc100008381611c4957611c48612b9d565b5b0492506010810190505b6305f5e1008310611c7c576305f5e1008381611c7257611c71612b9d565b5b0492506008810190505b6127108310611ca1576127108381611c9757611c96612b9d565b5b0492506004810190505b60648310611cc45760648381611cba57611cb9612b9d565b5b0492506002810190505b600a8310611cd3576001810190505b80915050919050565b600073ffffffffffffffffffffffffffffffffffffffff168273ffffffffffffffffffffffffffffffffffffffff1603611d4e5760006040517f64a0ae92000000000000000000000000000000000000000000000000000000008152600401611d459190612280565b60405180910390fd5b6000611d5c8383600061117c565b9050600073ffffffffffffffffffffffffffffffffffffffff168173ffffffffffffffffffffffffffffffffffffffff1614611dd05760006040517f73c6ac6e000000000000000000000000000000000000000000000000000000008152600401611dc79190612280565b60405180910390fd5b505050565b60008073ffffffffffffffffffffffffffffffffffffffff168373ffffffffffffffffffffffffffffffffffffffff1614158015611e8d57508273ffffffffffffffffffffffffffffffffffffffff168473ffffffffffffffffffffffffffffffffffffffff161480611e4e5750611e4d8484610d57565b5b80611e8c57508273ffffffffffffffffffffffffffffffffffffffff16611e7483611027565b73ffffffffffffffffffffffffffffffffffffffff16145b5b90509392505050565b60405180606001604052806000815260200160608152602001600081525090565b6000604051905090565b600080fd5b600080fd5b60007fffffffff0000000000000000000000000000000000000000000000000000000082169050919050565b611f0081611ecb565b8114611f0b57600080fd5b50565b600081359050611f1d81611ef7565b92915050565b600060208284031215611f3957611f38611ec1565b5b6000611f4784828501611f0e565b91505092915050565b60008115159050919050565b611f6581611f50565b82525050565b6000602082019050611f806000830184611f5c565b92915050565b6000819050919050565b611f9981611f86565b8114611fa457600080fd5b50565b600081359050611fb681611f90565b92915050565b600080fd5b600080fd5b6000601f19601f8301169050919050565b7f4e487b7100000000000000000000000000000000000000000000000000000000600052604160045260246000fd5b61200f82611fc6565b810181811067ffffffffffffffff8211171561202e5761202d611fd7565b5b80604052505050565b6000612041611eb7565b905061204d8282612006565b919050565b600067ffffffffffffffff82111561206d5761206c611fd7565b5b61207682611fc6565b9050602081019050919050565b82818337600083830152505050565b60006120a56120a084612052565b612037565b9050828152602081018484840111156120c1576120c0611fc1565b5b6120cc848285612083565b509392505050565b600082601f8301126120e9576120e8611fbc565b5b81356120f9848260208601612092565b91505092915050565b60008060006060848603121561211b5761211a611ec1565b5b600061212986828701611fa7565b935050602084013567ffffffffffffffff81111561214a57612149611ec6565b5b612156868287016120d4565b925050604061216786828701611fa7565b9150509250925092565b600081519050919050565b600082825260208201905092915050565b60005b838110156121ab578082015181840152602081019050612190565b60008484015250505050565b60006121c282612171565b6121cc818561217c565b93506121dc81856020860161218d565b6121e581611fc6565b840191505092915050565b6000602082019050818103600083015261220a81846121b7565b905092915050565b60006020828403121561222857612227611ec1565b5b600061223684828501611fa7565b91505092915050565b600073ffffffffffffffffffffffffffffffffffffffff82169050919050565b600061226a8261223f565b9050919050565b61227a8161225f565b82525050565b60006020820190506122956000830184612271565b92915050565b6122a48161225f565b81146122af57600080fd5b50565b6000813590506122c18161229b565b92915050565b600080604083850312156122de576122dd611ec1565b5b60006122ec858286016122b2565b92505060206122fd85828601611fa7565b9150509250929050565b61231081611f86565b82525050565b600082825260208201905092915050565b600061233282612171565b61233c8185612316565b935061234c81856020860161218d565b61235581611fc6565b840191505092915050565b60006060830160008301516123786000860182612307565b50602083015184820360208601526123908282612327565b91505060408301516123a56040860182612307565b508091505092915050565b600060208201905081810360008301526123ca8184612360565b905092915050565b6000806000606084860312156123eb576123ea611ec1565b5b60006123f9868287016122b2565b935050602061240a868287016122b2565b925050604061241b86828701611fa7565b9150509250925092565b60006020828403121561243b5761243a611ec1565b5b600082013567ffffffffffffffff81111561245957612458611ec6565b5b612465848285016120d4565b91505092915050565b60006020828403121561248457612483611ec1565b5b6000612492848285016122b2565b91505092915050565b6124a481611f86565b82525050565b60006020820190506124bf600083018461249b565b92915050565b60006060820190506124da600083018661249b565b81810360208301526124ec81856121b7565b90506124fb604083018461249b565b949350505050565b61250c81611f50565b811461251757600080fd5b50565b60008135905061252981612503565b92915050565b6000806040838503121561254657612545611ec1565b5b6000612554858286016122b2565b92505060206125658582860161251a565b9150509250929050565b600067ffffffffffffffff82111561258a57612589611fd7565b5b61259382611fc6565b9050602081019050919050565b60006125b36125ae8461256f565b612037565b9050828152602081018484840111156125cf576125ce611fc1565b5b6125da848285612083565b509392505050565b600082601f8301126125f7576125f6611fbc565b5b81356126078482602086016125a0565b91505092915050565b6000806000806080858703121561262a57612629611ec1565b5b6000612638878288016122b2565b9450506020612649878288016122b2565b935050604061265a87828801611fa7565b925050606085013567ffffffffffffffff81111561267b5761267a611ec6565b5b612687878288016125e2565b91505092959194509250565b600080604083850312156126aa576126a9611ec1565b5b60006126b8858286016122b2565b92505060206126c9858286016122b2565b9150509250929050565b7f4e465420646f6573206e6f742065786973740000000000000000000000000000600082015250565b600061270960128361217c565b9150612714826126d3565b602082019050919050565b60006020820190508181036000830152612738816126fc565b9050919050565b7f4e487b7100000000000000000000000000000000000000000000000000000000600052602260045260246000fd5b6000600282049050600182168061278657607f821691505b6020821081036127995761279861273f565b5b50919050565b60008190508160005260206000209050919050565b60006020601f8301049050919050565b600082821b905092915050565b6000600883026128017fffffffffffffffffffffffffffffffffffffffffffffffffffffffffffffffff826127c4565b61280b86836127c4565b95508019841693508086168417925050509392505050565b6000819050919050565b600061284861284361283e84611f86565b612823565b611f86565b9050919050565b6000819050919050565b6128628361282d565b61287661286e8261284f565b8484546127d1565b825550505050565b600090565b61288b61287e565b612896818484612859565b505050565b5b818110156128ba576128af600082612883565b60018101905061289c565b5050565b601f8211156128ff576128d08161279f565b6128d9846127b4565b810160208510156128e8578190505b6128fc6128f4856127b4565b83018261289b565b50505b505050565b600082821c905092915050565b600061292260001984600802612904565b1980831691505092915050565b600061293b8383612911565b9150826002028217905092915050565b61295482612171565b67ffffffffffffffff81111561296d5761296c611fd7565b5b612977825461276e565b6129828282856128be565b600060209050601f8311600181146129b557600084156129a3578287015190505b6129ad858261292f565b865550612a15565b601f1984166129c38661279f565b60005b828110156129eb578489015182556001820191506020850194506020810190506129c6565b86831015612a085784890151612a04601f891682612911565b8355505b6001600288020188555050505b505050505050565b60006040820190508181036000830152612a3781856121b7565b9050612a46602083018461249b565b9392505050565b7f4e487b7100000000000000000000000000000000000000000000000000000000600052601160045260246000fd5b6000612a8782611f86565b91507fffffffffffffffffffffffffffffffffffffffffffffffffffffffffffffffff8203612ab957612ab8612a4d565b5b600182019050919050565b6000606082019050612ad96000830186612271565b612ae6602083018561249b565b612af36040830184612271565b949350505050565b600081905092915050565b6000612b1182612171565b612b1b8185612afb565b9350612b2b81856020860161218d565b80840191505092915050565b6000612b438285612b06565b9150612b4f8284612b06565b91508190509392505050565b6000612b6682611f86565b9150612b7183611f86565b9250828202612b7f81611f86565b91508282048414831517612b9657612b95612a4d565b5b5092915050565b7f4e487b7100000000000000000000000000000000000000000000000000000000600052601260045260246000fd5b6000612bd782611f86565b9150612be283611f86565b925082612bf257612bf1612b9d565b5b828204905092915050565b600081519050919050565b600082825260208201905092915050565b6000612c2482612bfd565b612c2e8185612c08565b9350612c3e81856020860161218d565b612c4781611fc6565b840191505092915050565b6000608082019050612c676000830187612271565b612c746020830186612271565b612c81604083018561249b565b8181036060830152612c938184612c19565b905095945050505050565b600081519050612cad81611ef7565b92915050565b600060208284031215612cc957612cc8611ec1565b5b6000612cd784828501612c9e565b91505092915050565b6000604082019050612cf56000830185612271565b612d02602083018461249b565b939250505056fea2646970667358221220ec275f423e7776ae77ac5b6b4ccfc70fcb480021992faaae401dae48d519e55c64736f6c63430008140033",
  "linkReferences": {},
  "deployedLinkReferences": {}
}