{
  "_format": "hh-sol-artifact-1",
  "contractName": "EcoSoulNFT",
  "sourceName": "contracts/EcoSoulNFT.sol",
  "abi": [
    {
      "inputs": [],
      "stateMutability": "nonpayable",
      "type": "constructor"
    },
    {
      "inputs": [
        {
          "internalType": "address",
          "name": "sender",
          "type": "address"
        },
        {
          "internalType": "uint256",
          "name": "tokenId",
          "type": "uint256"
        },
        {
          "internalType": "address",
          "name": "owner",
          "type": "address"
        }
      ],
      "name": "ERC721IncorrectOwner",
      "type": "error"
    },
    {
      "inputs": [
        {
          "internalType": "address",
          "name": "operator",
          "type": "address"
        },
        {
          "internalType": "uint256",
          "name": "tokenId",
          "type": "uint256"
        }
      ],
      "name": "ERC721InsufficientApproval",
      "type": "error"
    },
    {
      "inputs": [
        {
          "internalType": "address",
          "name": "approver",
          "type": "address"
        }
      ],
      "name": "ERC721InvalidApprover",
      "type": "error"
    },
    {
      "inputs": [
        {
          "internalType": "address",
          "name": "operator",
          "type": "address"
        }
      ],
      "name": "ERC721InvalidOperator",
      "type": "error"
    },
    {
      "inputs": [
        {
          "internalType": "address",
          "name": "owner",
          "type": "address"
        }
      ],
      "name": "ERC721InvalidOwner",
      "type": "error"
    },
    {
      "inputs": [
        {
          "internalType": "address",
          "name": "receiver",
          "type": "address"
        }
      ],
      "name": "ERC721InvalidReceiver",
      "type": "error"
    },
    {
      "inputs": [
        {
          "internalType": "address",
          "name": "sender",
          "type": "address"
        }
      ],
      "name": "ERC721InvalidSender",
      "type": "error"
    },
    {
      "inputs": [
        {
          "internalType": "uint256",
          "name": "tokenId",
          "type": "uint256"
        }
      ],
      "name": "ERC721NonexistentToken",
      "type": "error"
    },
    {
      "inputs": [
        {
          "internalType": "address",
          "name": "owner",
          "type": "address"
        }
      ],
      "name": "OwnableInvalidOwner",
      "type": "error"
    },
    {
      "inputs": [
        {
          "internalType": "address",
          "name": "account",
          "type": "address"
        }
      ],
      "name": "OwnableUnauthorizedAccount",
      "type": "error"
    },
    {
      "anonymous": false,
      "inputs": [
        {
          "indexed": true,
          "internalType": "address",
          "name": "owner",
          "type": "address"
        },
        {
          "indexed": true,
          "internalType": "address",
          "name": "approved",
          "type": "address"
        },
        {
          "indexed": true,
          "internalType": "uint256",
          "name": "tokenId",
          "type": "uint256"
        }
      ],
      "name": "Approval",
      "type": "event"
    },
    {
      "anonymous": false,
      "inputs": [
        {
          "indexed": true,
          "internalType": "address",
          "name": "owner",
          "type": "address"
        },
        {
          "indexed": true,
          "internalType": "address",
          "name": "operator",
          "type": "address"
        },
        {
          "indexed": false,
          "internalType": "bool",
          "name": "approved",
          "type": "bool"
        }
      ],
      "name": "ApprovalForAll",
      "type": "event"
    },
    {
      "anonymous": false,
      "inputs": [
        {
          "indexed": true,
          "internalType": "address",
          "name": "owner",
          "type": "address"
        },
        {
          "indexed": true,
          "internalType": "uint256",
          "name": "tokenId",
          "type": "uint256"
        }
      ],
      "name": "NFTMinted",
      "type": "event"
    },
    {
      "anonymous": false,
      "inputs": [
        {
          "indexed": true,
          "internalType": "uint256",
          "name": "tokenId",
          "type": "uint256"
        },
        {
          "indexed": false,
          "internalType": "string",
          "name": "weatherCondition",
          "type": "string"
        },
        {
          "indexed": false,
          "internalType": "uint256",
          "name": "ecoScore",
          "type": "uint256"
        }
      ],
      "name": "NFTUpdated",
      "type": "event"
    },
    {
      "anonymous": false,
      "inputs": [
        {
          "indexed": true,
          "internalType": "address",
          "name": "previousOwner",
          "type": "address"
        },
        {
          "indexed": true,
          "internalType": "address",
          "name": "newOwner",
          "type": "address"
        }
      ],
      "name": "OwnershipTransferred",
      "type": "event"
    },
    {
      "anonymous": false,
      "inputs": [
        {
          "indexed": true,
          "internalType": "address",
          "name": "from",
          "type": "address"
        },
        {
          "indexed": true,
          "internalType": "address",
          "name": "to",
          "type": "address"
        },
        {
          "indexed": true,
          "internalType": "uint256",
          "name": "tokenId",
          "type": "uint256"
        }
      ],
      "name": "Transfer",
      "type": "event"
    },
    {
      "inputs": [
        {
          "internalType": "address",
          "name": "to",
          "type": "address"
        },
        {
          "internalType": "uint256",
          "name": "tokenId",
          "type": "uint256"
        }
      ],
      "name": "approve",
      "outputs": [],
      "stateMutability": "nonpayable",
      "type": "function"
    },
    {
      "inputs": [
        {
          "internalType": "address",
          "name": "owner",
          "type": "address"
        }
      ],
      "name": "balanceOf",
      "outputs": [
        {
          "internalType": "uint256",
          "name": "",
          "type": "uint256"
        }
      ],
      "stateMutability": "view",
      "type": "function"
    },
    {
      "inputs": [
        {
          "internalType": "uint256",
          "name": "tokenId",
          "type": "uint256"
        }
      ],
      "name": "getApproved",
      "outputs": [
        {
          "internalType": "address",
          "name": "",
          "type": "address"
        }
      ],
      "stateMutability": "view",
      "type": "function"
    },
    {
      "inputs": [
        {
          "internalType": "uint256",
          "name": "tokenId",
          "type": "uint256"
        }
      ],
      "name": "getNFTState",
      "outputs": [
        {
          "components": [
            {
              "internalType": "uint256",
              "name": "ecoScore",
              "type": "uint256"
            },
            {
              "internalType": "string",
              "name": "weatherCondition",
              "type": "string"
            },
            {
              "internalType": "uint256",
              "name": "lastUpdate",
              "type": "uint256"
            }
          ],
          "internalType": "struct EcoSoulNFT.NFTState",
          "name": "",
          "type": "tuple"
        }
      ],
      "stateMutability": "view",
      "type": "function"
    },
    {
      "inputs": [
        {
          "internalType": "address",
          "name": "owner",
          "type": "address"
        },
        {
          "internalType": "address",
          "name": "operator",
          "type": "address"
        }
      ],
      "name": "isApprovedForAll",
      "outputs": [
        {
          "internalType": "bool",
          "name": "",
          "type": "bool"
        }
      ],
      "stateMutability": "view",
      "type": "function"
    },
    {
      "inputs": [],
      "name": "mint",
      "outputs": [],
      "stateMutability": "nonpayable",
      "type": "function"
    },
    {
      "inputs": [],
      "name": "name",
      "outputs": [
        {
          "internalType": "string",
          "name": "",
          "type": "string"
        }
      ],
      "stateMutability": "view",
      "type": "function"
    },
    {
      "inputs": [
        {
          "internalType": "uint256",
          "name": "",
          "type": "uint256"
        }
      ],
      "name": "nftStates",
      "outputs": [
        {
          "internalType": "uint256",
          "name": "ecoScore",
          "type": "uint256"
        },
        {
          "internalType": "string",
          "name": "weatherCondition",
          "type": "string"
        },
        {
          "internalType": "uint256",
          "name": "lastUpdate",
          "type": "uint256"
        }
      ],
      "stateMutability": "view",
      "type": "function"
    },
    {
      "inputs": [],
      "name": "owner",
      "outputs": [
        {
          "internalType": "address",
          "name": "",
          "type": "address"
        }
      ],
      "stateMutability": "view",
      "type": "function"
    },
    {
      "inputs": [
        {
          "internalType": "uint256",
          "name": "tokenId",
          "type": "uint256"
        }
      ],
      "name": "ownerOf",
      "outputs": [
        {
          "internalType": "address",
          "name": "",
          "type": "address"
        }
      ],
      "stateMutability": "view",
      "type": "function"
    },
    {
      "inputs": [],
      "name": "renounceOwnership",
      "outputs": [],
      "stateMutability": "nonpayable",
      "type": "function"
    },
    {
      "inputs": [
        {
          "internalType": "address",
          "name": "from",
          "type": "address"
        },
        {
          "internalType": "address",
          "name": "to",
          "type": "address"
        },
        {
          "internalType": "uint256",
          "name": "tokenId",
          "type": "uint256"
        }
      ],
      "name": "safeTransferFrom",
      "outputs": [],
      "stateMutability": "nonpayable",
      "type": "function"
    },
    {
      "inputs": [
        {
          "internalType": "address",
          "name": "from",
          "type": "address"
        },
        {
          "internalType": "address",
          "name": "to",
          "type": "address"
        },
        {
          "internalType": "uint256",
          "name": "tokenId",
          "type": "uint256"
        },
        {
          "internalType": "bytes",
          "name": "data",
          "type": "bytes"
        }
      ],
      "name": "safeTransferFrom",
      "outputs": [],
      "stateMutability": "nonpayable",
      "type": "function"
    },
    {
      "inputs": [
        {
          "internalType": "address",
          "name": "operator",
          "type": "address"
        },
        {
          "internalType": "bool",
          "name": "approved",
          "type": "bool"
        }
      ],
      "name": "setApprovalForAll",
      "outputs": [],
      "stateMutability": "nonpayable",
      "type": "function"
    },
    {
      "inputs": [
        {
          "internalType": "string",
          "name": "baseURI",
          "type": "string"
        }
      ],
      "name": "setBaseURI",
      "outputs": [],
      "stateMutability": "nonpayable",
      "type": "function"
    },
    {
      "inputs": [
        {
          "internalType": "bytes4",
          "name": "interfaceId",
          "type": "bytes4"
        }
      ],
      "name": "supportsInterface",
      "outputs": [
        {
          "internalType": "bool",
          "name": "",
          "type": "bool"
        }
      ],
      "stateMutability": "view",
      "type": "function"
    },
    {
      "inputs": [],
      "name": "symbol",
      "outputs": [
        {
          "internalType": "string",
          "name": "",
          "type": "string"
        }
      ],
      "stateMutability": "view",
      "type": "function"
    },
    {
      "inputs": [
        {
          "internalType": "uint256",
          "name": "tokenId",
          "type": "uint256"
        }
      ],
      "name": "tokenURI",
      "outputs": [
        {
          "internalType": "string",
          "name": "",
          "type": "string"
        }
      ],
      "stateMutability": "view",
      "type": "function"
    },
    {
      "inputs": [
        {
          "internalType": "address",
          "name": "from",
          "type": "address"
        },
        {
          "internalType": "address",
          "name": "to",
          "type": "address"
        },
        {
          "internalType": "uint256",
          "name": "tokenId",
          "type": "uint256"
        }
      ],
      "name": "transferFrom",
      "outputs": [],
      "stateMutability": "nonpayable",
      "type": "function"
    },
    {
      "inputs": [
        {
          "internalType": "address",
          "name": "newOwner",
          "type": "address"
        }
      ],
      "name": "transferOwnership",
      "outputs": [],
      "stateMutability": "nonpayable",
      "type": "function"
    },
    {
      "inputs": [
        {
          "internalType": "uint256",
          "name": "tokenId",
          "type": "uint256"
        },
        {
          "internalType": "string",
          "name": "weatherCondition",
          "type": "string"
        },
        {
          "internalType": "uint256",
          "name": "ecoScore",
          "type": "uint256"
        }
      ],
      "name": "updateNFTState",
      "outputs": [],
      "stateMutability": "nonpayable",
      "type": "function"
    }
  ],
  "bytecode": "0x60806040523480156200001157600080fd5b50336040518060400160405280600781526020017f45636f536f756c000000000000000000000000000000000000000000000000008152506040518060400160405280600381526020017f45434f000000000000000000000000000000000000000000000000000000000081525081600090816200009091906200047a565b508060019081620000a291906200047a565b505050600073ffffffffffffffffffffffffffffffffffffffff168173ffffffffffffffffffffffffffffffffffffffff16036200011a5760006040517f1e4fbdf7000000000000000000000000000000000000000000000000000000008152600401620001119190620005a6565b60405180910390fd5b6200012b816200013a60201b60201c565b506000600881905550620005c3565b6000600660009054906101000a900473ffffffffffffffffffffffffffffffffffffffff16905081600660006101000a81548173ffffffffffffffffffffffffffffffffffffffff021916908373ffffffffffffffffffffffffffffffffffffffff1602179055508173ffffffffffffffffffffffffffffffffffffffff168173ffffffffffffffffffffffffffffffffffffffff167f8be0079c531659141344cd1fd0a4f28419497f9722a3daafe3b4186f6b6457e060405160405180910390a35050565b600081519050919050565b7f4e487b7100000000000000000000000000000000000000000000000000000000600052604160045260246000fd5b7f4e487b7100000000000000000000000000000000000000000000000000000000600052602260045260246000fd5b600060028204905060018216806200028257607f821691505b6020821081036200029857620002976200023a565b5b50919050565b60008190508160005260206000209050919050565b60006020601f8301049050919050565b600082821b905092915050565b600060088302620003027fffffffffffffffffffffffffffffffffffffffffffffffffffffffffffffffff82620002c3565b6200030e8683620002c3565b95508019841693508086168417925050509392505050565b6000819050919050565b6000819050919050565b60006200035b620003556200034f8462000326565b62000330565b62000326565b9050919050565b6000819050919050565b62000377836200033a565b6200038f620003868262000362565b848454620002d0565b825550505050565b600090565b620003a662000397565b620003b38184846200036c565b505050565b5b81811015620003db57620003cf6000826200039c565b600181019050620003b9565b5050565b601f8211156200042a57620003f4816200029e565b620003ff84620002b3565b810160208510156200040f578190505b620004276200041e85620002b3565b830182620003b8565b50505b505050565b600082821c905092915050565b60006200044f600019846008026200042f565b1980831691505092915050565b60006200046a83836200043c565b9150826002028217905092915050565b620004858262000200565b67ffffffffffffffff811115620004a157620004a06200020b565b5b620004ad825462000269565b620004ba828285620003df565b600060209050601f831160018114620004f25760008415620004dd578287015190505b620004e985826200045c565b86555062000559565b601f19841662000502866200029e565b60005b828110156200052c5784890151825560018201915060208501945060208101905062000505565b868310156200054c578489015162000548601f8916826200043c565b8355505b6001600288020188555050505b505050505050565b600073ffffffffffffffffffffffffffffffffffffffff82169050919050565b60006200058e8262000561565b9050919050565b620005a08162000581565b82525050565b6000602082019050620005bd600083018462000595565b92915050565b612d4080620005d36000396000f3fe608060405234801561001057600080fd5b50600436106101375760003560e01c80636352211e116100b857806395d89b411161007c57806395d89b411461033a578063a22cb46514610358578063b88d4fde14610374578063c87b56dd14610390578063e985e9c5146103c0578063f2fde38b146103f057610137565b80636352211e1461028057806370a08231146102b0578063715018a6146102e05780637447bb04146102ea5780638da5cb5b1461031c57610137565b80631249c58b116100ff5780631249c58b146101f25780631ece83b0146101fc57806323b872dd1461022c57806342842e0e1461024857806355f804b31461026457610137565b806301ffc9a71461013c57806302ddb9d91461016c57806306fdde0314610188578063081812fc146101a6578063095ea7b3146101d6575b600080fd5b61015660048036038101906101519190611f24565b61040c565b6040516101639190611f6c565b60405180910390f35b61018660048036038101906101819190612103565b6104ee565b005b610190610606565b60405161019d91906121f1565b60405180910390f35b6101c060048036038101906101bb9190612213565b610698565b6040516101cd9190612281565b60405180910390f35b6101f060048036038101906101eb91906122c8565b6106b4565b005b6101fa6106ca565b005b61021660048036038101906102119190612213565b6107de565b60405161022391906123b1565b60405180910390f35b610246600480360381019061024191906123d3565b610928565b005b610262600480360381019061025d91906123d3565b610a2a565b005b61027e60048036038101906102799190612426565b610a4a565b005b61029a60048036038101906102959190612213565b610a65565b6040516102a79190612281565b60405180910390f35b6102ca60048036038101906102c5919061246f565b610a77565b6040516102d791906124ab565b60405180910390f35b6102e8610b31565b005b61030460048036038101906102ff9190612213565b610b45565b604051610313939291906124c6565b60405180910390f35b610324610bf7565b6040516103319190612281565b60405180910390f35b610342610c21565b60405161034f91906121f1565b60405180910390f35b610372600480360381019061036d9190612530565b610cb3565b005b61038e60048036038101906103899190612611565b610cc9565b005b6103aa60048036038101906103a59190612213565b610cee565b6040516103b791906121f1565b60405180910390f35b6103da60048036038101906103d59190612694565b610d57565b6040516103e79190611f6c565b60405180910390f35b61040a6004803603810190610405919061246f565b610deb565b005b60007f80ac58cd000000000000000000000000000000000000000000000000000000007bffffffffffffffffffffffffffffffffffffffffffffffffffffffff1916827bffffffffffffffffffffffffffffffffffffffffffffffffffffffff191614806104d757507f5b5e139f000000000000000000000000000000000000000000000000000000007bffffffffffffffffffffffffffffffffffffffffffffffffffffffff1916827bffffffffffffffffffffffffffffffffffffffffffffffffffffffff1916145b806104e757506104e682610e71565b5b9050919050565b6104f6610edb565b600073ffffffffffffffffffffffffffffffffffffffff1661051784610f62565b73ffffffffffffffffffffffffffffffffffffffff160361056d576040517f08c379a000000000000000000000000000000000000000000000000000000000815260040161056490612720565b60405180910390fd5b81600760008581526020019081526020016000206001019081610590919061294c565b50806007600085815260200190815260200160002060000181905550426007600085815260200190815260200160002060020181905550827fcb92025fb07e9a68e47a0b11c8c3639808fea95037fedf50d82533aabf4a668a83836040516105f9929190612a1e565b60405180910390a2505050565b6060600080546106159061276f565b80601f01602080910402602001604051908101604052809291908181526020018280546106419061276f565b801561068e5780601f106106635761010080835404028352916020019161068e565b820191906000526020600020905b81548152906001019060200180831161067157829003601f168201915b5050505050905090565b60006106a382610f9f565b506106ad82611027565b9050919050565b6106c682826106c1611064565b61106c565b5050565b60006008549050600860008154809291906106e490612a7d565b91905055506106f3338261107e565b60006040518060400160405280600581526020017f73756e6e79000000000000000000000000000000000000000000000000000000815250905060006107388261109c565b905060405180606001604052808281526020018381526020014281525060076000858152602001908152602001600020600082015181600001556020820151816001019081610787919061294c565b5060408201518160020155905050823373ffffffffffffffffffffffffffffffffffffffff167f4cc0a9c4a99ddc700de1af2c9f916a7cbfdb71f14801ccff94061ad1ef8a804060405160405180910390a3505050565b6107e6611e97565b600073ffffffffffffffffffffffffffffffffffffffff1661080783610f62565b73ffffffffffffffffffffffffffffffffffffffff160361085d576040517f08c379a000000000000000000000000000000000000000000000000000000000815260040161085490612720565b60405180910390fd5b60076000838152602001908152602001600020604051806060016040529081600082015481526020016001820180546108959061276f565b80601f01602080910402602001604051908101604052809291908181526020018280546108c19061276f565b801561090e5780601f106108e35761010080835404028352916020019161090e565b820191906000526020600020905b8154815290600101906020018083116108f157829003601f168201915b505050505081526020016002820154815250509050919050565b600073ffffffffffffffffffffffffffffffffffffffff168273ffffffffffffffffffffffffffffffffffffffff160361099a5760006040517f64a0ae920000000000000000000000000000000000000000000000000000000081526004016109919190612281565b60405180910390fd5b60006109ae83836109a9611064565b61117d565b90508373ffffffffffffffffffffffffffffffffffffffff168173ffffffffffffffffffffffffffffffffffffffff1614610a24578382826040517f64283d7b000000000000000000000000000000000000000000000000000000008152600401610a1b93929190612ac5565b60405180910390fd5b50505050565b610a4583838360405180602001604052806000815250610cc9565b505050565b610a52610edb565b8060099081610a61919061294c565b5050565b6000610a7082610f9f565b9050919050565b60008073ffffffffffffffffffffffffffffffffffffffff168273ffffffffffffffffffffffffffffffffffffffff1603610aea5760006040517f89c62b64000000000000000000000000000000000000000000000000000000008152600401610ae19190612281565b60405180910390fd5b600360008373ffffffffffffffffffffffffffffffffffffffff1673ffffffffffffffffffffffffffffffffffffffff168152602001908152602001600020549050919050565b610b39610edb565b610b436000611397565b565b6007602052806000526040600020600091509050806000015490806001018054610b6e9061276f565b80601f0160208091040260200160405190810160405280929190818152602001828054610b9a9061276f565b8015610be75780601f10610bbc57610100808354040283529160200191610be7565b820191906000526020600020905b815481529060010190602001808311610bca57829003601f168201915b5050505050908060020154905083565b6000600660009054906101000a900473ffffffffffffffffffffffffffffffffffffffff16905090565b606060018054610c309061276f565b80601f0160208091040260200160405190810160405280929190818152602001828054610c5c9061276f565b8015610ca95780601f10610c7e57610100808354040283529160200191610ca9565b820191906000526020600020905b815481529060010190602001808311610c8c57829003601f168201915b5050505050905090565b610cc5610cbe611064565b838361145d565b5050565b610cd4848484610928565b610ce8610cdf611064565b858585856115cc565b50505050565b6060610cf982610f9f565b506000610d0461177d565b90506000815111610d245760405180602001604052806000815250610d4f565b80610d2e8461180f565b604051602001610d3f929190612b38565b6040516020818303038152906040525b915050919050565b6000600560008473ffffffffffffffffffffffffffffffffffffffff1673ffffffffffffffffffffffffffffffffffffffff16815260200190815260200160002060008373ffffffffffffffffffffffffffffffffffffffff1673ffffffffffffffffffffffffffffffffffffffff16815260200190815260200160002060009054906101000a900460ff16905092915050565b610df3610edb565b600073ffffffffffffffffffffffffffffffffffffffff168173ffffffffffffffffffffffffffffffffffffffff1603610e655760006040517f1e4fbdf7000000000000000000000000000000000000000000000000000000008152600401610e5c9190612281565b60405180910390fd5b610e6e81611397565b50565b60007f01ffc9a7000000000000000000000000000000000000000000000000000000007bffffffffffffffffffffffffffffffffffffffffffffffffffffffff1916827bffffffffffffffffffffffffffffffffffffffffffffffffffffffff1916149050919050565b610ee3611064565b73ffffffffffffffffffffffffffffffffffffffff16610f01610bf7565b73ffffffffffffffffffffffffffffffffffffffff1614610f6057610f24611064565b6040517f118cdaa7000000000000000000000000000000000000000000000000000000008152600401610f579190612281565b60405180910390fd5b565b60006002600083815260200190815260200160002060009054906101000a900473ffffffffffffffffffffffffffffffffffffffff169050919050565b600080610fab83610f62565b9050600073ffffffffffffffffffffffffffffffffffffffff168173ffffffffffffffffffffffffffffffffffffffff160361101e57826040517f7e27328900000000000000000000000000000000000000000000000000000000815260040161101591906124ab565b60405180910390fd5b80915050919050565b60006004600083815260200190815260200160002060009054906101000a900473ffffffffffffffffffffffffffffffffffffffff169050919050565b600033905090565b61107983838360016118dd565b505050565b611098828260405180602001604052806000815250611aa2565b5050565b600080606490506040518060400160405280600581526020017f73756e6e790000000000000000000000000000000000000000000000000000008152508051906020012083805190602001200361110d5760646078826110fc9190612b5c565b6111069190612bcd565b9050611174565b6040518060400160405280600581526020017f7261696e79000000000000000000000000000000000000000000000000000000815250805190602001208380519060200120036111735760646096826111669190612b5c565b6111709190612bcd565b90505b5b80915050919050565b60008061118984610f62565b9050600073ffffffffffffffffffffffffffffffffffffffff168373ffffffffffffffffffffffffffffffffffffffff16146111cb576111ca818486611ac6565b5b600073ffffffffffffffffffffffffffffffffffffffff168173ffffffffffffffffffffffffffffffffffffffff161461125c5761120d6000856000806118dd565b6001600360008373ffffffffffffffffffffffffffffffffffffffff1673ffffffffffffffffffffffffffffffffffffffff168152602001908152602001600020600082825403925050819055505b600073ffffffffffffffffffffffffffffffffffffffff168573ffffffffffffffffffffffffffffffffffffffff16146112df576001600360008773ffffffffffffffffffffffffffffffffffffffff1673ffffffffffffffffffffffffffffffffffffffff168152602001908152602001600020600082825401925050819055505b846002600086815260200190815260200160002060006101000a81548173ffffffffffffffffffffffffffffffffffffffff021916908373ffffffffffffffffffffffffffffffffffffffff160217905550838573ffffffffffffffffffffffffffffffffffffffff168273ffffffffffffffffffffffffffffffffffffffff167fddf252ad1be2c89b69c2b068fc378daa952ba7f163c4a11628f55a4df523b3ef60405160405180910390a4809150509392505050565b6000600660009054906101000a900473ffffffffffffffffffffffffffffffffffffffff16905081600660006101000a81548173ffffffffffffffffffffffffffffffffffffffff021916908373ffffffffffffffffffffffffffffffffffffffff1602179055508173ffffffffffffffffffffffffffffffffffffffff168173ffffffffffffffffffffffffffffffffffffffff167f8be0079c531659141344cd1fd0a4f28419497f9722a3daafe3b4186f6b6457e060405160405180910390a35050565b600073ffffffffffffffffffffffffffffffffffffffff168273ffffffffffffffffffffffffffffffffffffffff16036114ce57816040517f5b08ba180000000000000000000000000000000000000000000000000000000081526004016114c59190612281565b60405180910390fd5b80600560008573ffffffffffffffffffffffffffffffffffffffff1673ffffffffffffffffffffffffffffffffffffffff16815260200190815260200160002060008473ffffffffffffffffffffffffffffffffffffffff1673ffffffffffffffffffffffffffffffffffffffff16815260200190815260200160002060006101000a81548160ff0219169083151502179055508173ffffffffffffffffffffffffffffffffffffffff168373ffffffffffffffffffffffffffffffffffffffff167f17307eab39ab6107e8899845ad3d59bd9653f200f220920489ca2b5937696c31836040516115bf9190611f6c565b60405180910390a3505050565b60008373ffffffffffffffffffffffffffffffffffffffff163b1115611776578273ffffffffffffffffffffffffffffffffffffffff1663150b7a02868685856040518563ffffffff1660e01b815260040161162b9493929190612c53565b6020604051808303816000875af192505050801561166757506040513d601f19601f820116820180604052508101906116649190612cb4565b60015b6116eb573d8060008114611697576040519150601f19603f3d011682016040523d82523d6000602084013e61169c565b606091505b5060008151036116e357836040517f64a0ae920000000000000000000000000000000000000000000000000000000081526004016116da9190612281565b60405180910390fd5b805181602001fd5b63150b7a0260e01b7bffffffffffffffffffffffffffffffffffffffffffffffffffffffff1916817bffffffffffffffffffffffffffffffffffffffffffffffffffffffff19161461177457836040517f64a0ae9200000000000000000000000000000000000000000000000000000000815260040161176b9190612281565b60405180910390fd5b505b5050505050565b60606009805461178c9061276f565b80601f01602080910402602001604051908101604052809291908181526020018280546117b89061276f565b80156118055780601f106117da57610100808354040283529160200191611805565b820191906000526020600020905b8154815290600101906020018083116117e857829003601f168201915b5050505050905090565b60606000600161181e84611b8a565b01905060008167ffffffffffffffff81111561183d5761183c611fd8565b5b6040519080825280601f01601f19166020018201604052801561186f5781602001600182028036833780820191505090505b509050600082602001820190505b6001156118d2578080600190039150507f3031323334353637383961626364656600000000000000000000000000000000600a86061a8153600a85816118c6576118c5612b9e565b5b0494506000850361187d575b819350505050919050565b80806119165750600073ffffffffffffffffffffffffffffffffffffffff168273ffffffffffffffffffffffffffffffffffffffff1614155b15611a4a57600061192684610f9f565b9050600073ffffffffffffffffffffffffffffffffffffffff168373ffffffffffffffffffffffffffffffffffffffff161415801561199157508273ffffffffffffffffffffffffffffffffffffffff168173ffffffffffffffffffffffffffffffffffffffff1614155b80156119a457506119a28184610d57565b155b156119e657826040517fa9fbf51f0000000000000000000000000000000000000000000000000000000081526004016119dd9190612281565b60405180910390fd5b8115611a4857838573ffffffffffffffffffffffffffffffffffffffff168273ffffffffffffffffffffffffffffffffffffffff167f8c5be1e5ebec7d5bd14f71427d1e84f3dd0314c0f7b2291e5b200ac8c7c3b92560405160405180910390a45b505b836004600085815260200190815260200160002060006101000a81548173ffffffffffffffffffffffffffffffffffffffff021916908373ffffffffffffffffffffffffffffffffffffffff16021790555050505050565b611aac8383611cdd565b611ac1611ab7611064565b60008585856115cc565b505050565b611ad1838383611dd6565b611b8557600073ffffffffffffffffffffffffffffffffffffffff168373ffffffffffffffffffffffffffffffffffffffff1603611b4657806040517f7e273289000000000000000000000000000000000000000000000000000000008152600401611b3d91906124ab565b60405180910390fd5b81816040517f177e802f000000000000000000000000000000000000000000000000000000008152600401611b7c929190612ce1565b60405180910390fd5b505050565b600080600090507a184f03e93ff9f4daa797ed6e38ed64bf6a1f0100000000000000008310611be8577a184f03e93ff9f4daa797ed6e38ed64bf6a1f0100000000000000008381611bde57611bdd612b9e565b5b0492506040810190505b6d04ee2d6d415b85acef81000000008310611c25576d04ee2d6d415b85acef81000000008381611c1b57611c1a612b9e565b5b0492506020810190505b662386f26fc100008310611c5457662386f26fc100008381611c4a57611c49612b9e565b5b0492506010810190505b6305f5e1008310611c7d576305f5e1008381611c7357611c72612b9e565b5b0492506008810190505b6127108310611ca2576127108381611c9857611c97612b9e565b5b0492506004810190505b60648310611cc55760648381611cbb57611cba612b9e565b5b0492506002810190505b600a8310611cd4576001810190505b80915050919050565b600073ffffffffffffffffffffffffffffffffffffffff168273ffffffffffffffffffffffffffffffffffffffff1603611d4f5760006040517f64a0ae92000000000000000000000000000000000000000000000000000000008152600401611d469190612281565b60405180910390fd5b6000611d5d8383600061117d565b9050600073ffffffffffffffffffffffffffffffffffffffff168173ffffffffffffffffffffffffffffffffffffffff1614611dd15760006040517f73c6ac6e000000000000000000000000000000000000000000000000000000008152600401611dc89190612281565b60405180910390fd5b505050565b60008073ffffffffffffffffffffffffffffffffffffffff168373ffffffffffffffffffffffffffffffffffffffff1614158015611e8e57508273ffffffffffffffffffffffffffffffffffffffff168473ffffffffffffffffffffffffffffffffffffffff161480611e4f5750611e4e8484610d57565b5b80611e8d57508273ffffffffffffffffffffffffffffffffffffffff16611e7583611027565b73ffffffffffffffffffffffffffffffffffffffff16145b5b90509392505050565b60405180606001604052806000815260200160608152602001600081525090565b6000604051905090565b600080fd5b600080fd5b60007fffffffff0000000000000000000000000000000000000000000000000000000082169050919050565b611f0181611ecc565b8114611f0c57600080fd5b50565b600081359050611f1e81611ef8565b92915050565b600060208284031215611f3a57611f39611ec2565b5b6000611f4884828501611f0f565b91505092915050565b60008115159050919050565b611f6681611f51565b82525050565b6000602082019050611f816000830184611f5d565b92915050565b6000819050919050565b611f9a81611f87565b8114611fa557600080fd5b50565b600081359050611fb781611f91565b92915050565b600080fd5b600080fd5b6000601f19601f8301169050919050565b7f4e487b7100000000000000000000000000000000000000000000000000000000600052604160045260246000fd5b61201082611fc7565b810181811067ffffffffffffffff8211171561202f5761202e611fd8565b5b80604052505050565b6000612042611eb8565b905061204e8282612007565b919050565b600067ffffffffffffffff82111561206e5761206d611fd8565b5b61207782611fc7565b9050602081019050919050565b82818337600083830152505050565b60006120a66120a184612053565b612038565b9050828152602081018484840111156120c2576120c1611fc2565b5b6120cd848285612084565b509392505050565b600082601f8301126120ea576120e9611fbd565b5b81356120fa848260208601612093565b91505092915050565b60008060006060848603121561211c5761211b611ec2565b5b600061212a86828701611fa8565b935050602084013567ffffffffffffffff81111561214b5761214a611ec7565b5b612157868287016120d5565b925050604061216886828701611fa8565b9150509250925092565b600081519050919050565b600082825260208201905092915050565b60005b838110156121ac578082015181840152602081019050612191565b60008484015250505050565b60006121c382612172565b6121cd818561217d565b93506121dd81856020860161218e565b6121e681611fc7565b840191505092915050565b6000602082019050818103600083015261220b81846121b8565b905092915050565b60006020828403121561222957612228611ec2565b5b600061223784828501611fa8565b91505092915050565b600073ffffffffffffffffffffffffffffffffffffffff82169050919050565b600061226b82612240565b9050919050565b61227b81612260565b82525050565b60006020820190506122966000830184612272565b92915050565b6122a581612260565b81146122b057600080fd5b50565b6000813590506122c28161229c565b92915050565b600080604083850312156122df576122de611ec2565b5b60006122ed858286016122b3565b92505060206122fe85828601611fa8565b9150509250929050565b61231181611f87565b82525050565b600082825260208201905092915050565b600061233382612172565b61233d8185612317565b935061234d81856020860161218e565b61235681611fc7565b840191505092915050565b60006060830160008301516123796000860182612308565b50602083015184820360208601526123918282612328565b91505060408301516123a66040860182612308565b508091505092915050565b600060208201905081810360008301526123cb8184612361565b905092915050565b6000806000606084860312156123ec576123eb611ec2565b5b60006123fa868287016122b3565b935050602061240b868287016122b3565b925050604061241c86828701611fa8565b9150509250925092565b60006020828403121561243c5761243b611ec2565b5b600082013567ffffffffffffffff81111561245a57612459611ec7565b5b612466848285016120d5565b91505092915050565b60006020828403121561248557612484611ec2565b5b6000612493848285016122b3565b91505092915050565b6124a581611f87565b82525050565b60006020820190506124c0600083018461249c565b92915050565b60006060820190506124db600083018661249c565b81810360208301526124ed81856121b8565b90506124fc604083018461249c565b949350505050565b61250d81611f51565b811461251857600080fd5b50565b60008135905061252a81612504565b92915050565b6000806040838503121561254757612546611ec2565b5b6000612555858286016122b3565b92505060206125668582860161251b565b9150509250929050565b600067ffffffffffffffff82111561258b5761258a611fd8565b5b61259482611fc7565b9050602081019050919050565b60006125b46125af84612570565b612038565b9050828152602081018484840111156125d0576125cf611fc2565b5b6125db848285612084565b509392505050565b600082601f8301126125f8576125f7611fbd565b5b81356126088482602086016125a1565b91505092915050565b6000806000806080858703121561262b5761262a611ec2565b5b6000612639878288016122b3565b945050602061264a878288016122b3565b935050604061265b87828801611fa8565b925050606085013567ffffffffffffffff81111561267c5761267b611ec7565b5b612688878288016125e3565b91505092959194509250565b600080604083850312156126ab576126aa611ec2565b5b60006126b9858286016122b3565b92505060206126ca858286016122b3565b9150509250929050565b7f4e465420646f6573206e6f742065786973740000000000000000000000000000600082015250565b600061270a60128361217d565b9150612715826126d4565b602082019050919050565b60006020820190508181036000830152612739816126fd565b9050919050565b7f4e487b7100000000000000000000000000000000000000000000000000000000600052602260045260246000fd5b6000600282049050600182168061278757607f821691505b60208210810361279a57612799612740565b5b50919050565b60008190508160005260206000209050919050565b60006020601f8301049050919050565b600082821b905092915050565b6000600883026128027fffffffffffffffffffffffffffffffffffffffffffffffffffffffffffffffff826127c5565b61280c86836127c5565b95508019841693508086168417925050509392505050565b6000819050919050565b600061284961284461283f84611f87565b612824565b611f87565b9050919050565b6000819050919050565b6128638361282e565b61287761286f82612850565b8484546127d2565b825550505050565b600090565b61288c61287f565b61289781848461285a565b505050565b5b818110156128bb576128b0600082612884565b60018101905061289d565b5050565b601f821115612900576128d1816127a0565b6128da846127b5565b810160208510156128e9578190505b6128fd6128f5856127b5565b83018261289c565b50505b505050565b600082821c905092915050565b600061292360001984600802612905565b1980831691505092915050565b600061293c8383612912565b9150826002028217905092915050565b61295582612172565b67ffffffffffffffff81111561296e5761296d611fd8565b5b612978825461276f565b6129838282856128bf565b600060209050601f8311600181146129b657600084156129a4578287015190505b6129ae8582612930565b865550612a16565b601f1984166129c4866127a0565b60005b828110156129ec578489015182556001820191506020850194506020810190506129c7565b86831015612a095784890151612a05601f891682612912565b8355505b6001600288020188555050505b505050505050565b60006040820190508181036000830152612a3881856121b8565b9050612a47602083018461249c565b9392505050565b7f4e487b7100000000000000000000000000000000000000000000000000000000600052601160045260246000fd5b6000612a8882611f87565b91507fffffffffffffffffffffffffffffffffffffffffffffffffffffffffffffffff8203612aba57612ab9612a4e565b5b600182019050919050565b6000606082019050612ada6000830186612272565b612ae7602083018561249c565b612af46040830184612272565b949350505050565b600081905092915050565b6000612b1282612172565b612b1c8185612afc565b9350612b2c81856020860161218e565b80840191505092915050565b6000612b448285612b07565b9150612b508284612b07565b91508190509392505050565b6000612b6782611f87565b9150612b7283611f87565b9250828202612b8081611f87565b91508282048414831517612b9757612b96612a4e565b5b5092915050565b7f4e487b7100000000000000000000000000000000000000000000000000000000600052601260045260246000fd5b6000612bd882611f87565b9150612be383611f87565b925082612bf357612bf2612b9e565b5b828204905092915050565b600081519050919050565b600082825260208201905092915050565b6000612c2582612bfe565b612c2f8185612c09565b9350612c3f81856020860161218e565b612c4881611fc7565b840191505092915050565b6000608082019050612c686000830187612272565b612c756020830186612272565b612c82604083018561249c565b8181036060830152612c948184612c1a565b905095945050505050565b600081519050612cae81611ef8565b92915050565b600060208284031215612cca57612cc9611ec2565b5b6000612cd884828501612c9f565b91505092915050565b6000604082019050612cf66000830185612272565b612d03602083018461249c565b939250505056fea26469706673582212201d595c501dae6d9438a445074fb7306135e2aa414dfb2717a41ee48e1346f5c364736f6c63430008140033",
  "linkReferences": {},
  "deployedLinkReferences": {}
}