{
  "_format": "hh-sol-artifact-1",
  "contractName": "EcoSoulNFT",
  "sourceName": "contracts/EcoSoulNFT.sol",
  "abi": [
    {
      "inputs": [],
      "stateMutability": "nonpayable",
      "type": "constructor"
    },
    {
      "inputs": [
        {
          "internalType": "address",
          "name": "sender",
          "type": "address"
        },
        {
          "internalType": "uint256",
          "name": "tokenId",
          "type": "uint256"
        },
        {
          "internalType": "address",
          "name": "owner",
          "type": "address"
        }
      ],
      "name": "ERC721IncorrectOwner",
      "type": "error"
    },
    {
      "inputs": [
        {
          "internalType": "address",
          "name": "operator",
          "type": "address"
        },
        {
          "internalType": "uint256",
          "name": "tokenId",
          "type": "uint256"
        }
      ],
      "name": "ERC721InsufficientApproval",
      "type": "error"
    },
    {
      "inputs": [
        {
          "internalType": "address",
          "name": "approver",
          "type": "address"
        }
      ],
      "name": "ERC721InvalidApprover",
      "type": "error"
    },
    {
      "inputs": [
        {
          "internalType": "address",
          "name": "operator",
          "type": "address"
        }
      ],
      "name": "ERC721InvalidOperator",
      "type": "error"
    },
    {
      "inputs": [
        {
          "internalType": "address",
          "name": "owner",
          "type": "address"
        }
      ],
      "name": "ERC721InvalidOwner",
      "type": "error"
    },
    {
      "inputs": [
        {
          "internalType": "address",
          "name": "receiver",
          "type": "address"
        }
      ],
      "name": "ERC721InvalidReceiver",
      "type": "error"
    },
    {
      "inputs": [
        {
          "internalType": "address",
          "name": "sender",
          "type": "address"
        }
      ],
      "name": "ERC721InvalidSender",
      "type": "error"
    },
    {
      "inputs": [
        {
          "internalType": "uint256",
          "name": "tokenId",
          "type": "uint256"
        }
      ],
      "name": "ERC721NonexistentToken",
      "type": "error"
    },
    {
      "inputs": [
        {
          "internalType": "address",
          "name": "owner",
          "type": "address"
        }
      ],
      "name": "OwnableInvalidOwner",
      "type": "error"
    },
    {
      "inputs": [
        {
          "internalType": "address",
          "name": "account",
          "type": "address"
        }
      ],
      "name": "OwnableUnauthorizedAccount",
      "type": "error"
    },
    {
      "anonymous": false,
      "inputs": [
        {
          "indexed": true,
          "internalType": "address",
          "name": "owner",
          "type": "address"
        },
        {
          "indexed": true,
          "internalType": "address",
          "name": "approved",
          "type": "address"
        },
        {
          "indexed": true,
          "internalType": "uint256",
          "name": "tokenId",
          "type": "uint256"
        }
      ],
      "name": "Approval",
      "type": "event"
    },
    {
      "anonymous": false,
      "inputs": [
        {
          "indexed": true,
          "internalType": "address",
          "name": "owner",
          "type": "address"
        },
        {
          "indexed": true,
          "internalType": "address",
          "name": "operator",
          "type": "address"
        },
        {
          "indexed": false,
          "internalType": "bool",
          "name": "approved",
          "type": "bool"
        }
      ],
      "name": "ApprovalForAll",
      "type": "event"
    },
    {
      "anonymous": false,
      "inputs": [
        {
          "indexed": true,
          "internalType": "address",
          "name": "owner",
          "type": "address"
        },
        {
          "indexed": true,
          "internalType": "uint256",
          "name": "tokenId",
          "type": "uint256"
        }
      ],
      "name": "NFTMinted",
      "type": "event"
    },
    {
      "anonymous": false,
      "inputs": [
        {
          "indexed": true,
          "internalType": "uint256",
          "name": "tokenId",
          "type": "uint256"
        },
        {
          "indexed": false,
          "internalType": "string",
          "name": "weatherCondition",
          "type": "string"
        },
        {
          "indexed": false,
          "internalType": "uint256",
          "name": "ecoScore",
          "type": "uint256"
        },
        {
          "indexed": false,
          "internalType": "string",
          "name": "activity",
          "type": "string"
        }
      ],
      "name": "NFTUpdated",
      "type": "event"
    },
    {
      "anonymous": false,
      "inputs": [
        {
          "indexed": true,
          "internalType": "address",
          "name": "previousOwner",
          "type": "address"
        },
        {
          "indexed": true,
          "internalType": "address",
          "name": "newOwner",
          "type": "address"
        }
      ],
      "name": "OwnershipTransferred",
      "type": "event"
    },
    {
      "anonymous": false,
      "inputs": [
        {
          "indexed": true,
          "internalType": "address",
          "name": "from",
          "type": "address"
        },
        {
          "indexed": true,
          "internalType": "address",
          "name": "to",
          "type": "address"
        },
        {
          "indexed": true,
          "internalType": "uint256",
          "name": "tokenId",
          "type": "uint256"
        }
      ],
      "name": "Transfer",
      "type": "event"
    },
    {
      "inputs": [
        {
          "internalType": "address",
          "name": "to",
          "type": "address"
        },
        {
          "internalType": "uint256",
          "name": "tokenId",
          "type": "uint256"
        }
      ],
      "name": "approve",
      "outputs": [],
      "stateMutability": "nonpayable",
      "type": "function"
    },
    {
      "inputs": [
        {
          "internalType": "address",
          "name": "owner",
          "type": "address"
        }
      ],
      "name": "balanceOf",
      "outputs": [
        {
          "internalType": "uint256",
          "name": "",
          "type": "uint256"
        }
      ],
      "stateMutability": "view",
      "type": "function"
    },
    {
      "inputs": [
        {
          "internalType": "uint256",
          "name": "tokenId",
          "type": "uint256"
        }
      ],
      "name": "getApproved",
      "outputs": [
        {
          "internalType": "address",
          "name": "",
          "type": "address"
        }
      ],
      "stateMutability": "view",
      "type": "function"
    },
    {
      "inputs": [
        {
          "internalType": "uint256",
          "name": "tokenId",
          "type": "uint256"
        }
      ],
      "name": "getNFTState",
      "outputs": [
        {
          "components": [
            {
              "internalType": "uint256",
              "name": "ecoScore",
              "type": "uint256"
            },
            {
              "internalType": "string",
              "name": "weatherCondition",
              "type": "string"
            },
            {
              "internalType": "uint256",
              "name": "lastUpdate",
              "type": "uint256"
            },
            {
              "internalType": "string",
              "name": "lastActivity",
              "type": "string"
            }
          ],
          "internalType": "struct EcoSoulNFT.NFTState",
          "name": "",
          "type": "tuple"
        }
      ],
      "stateMutability": "view",
      "type": "function"
    },
    {
      "inputs": [
        {
          "internalType": "address",
          "name": "owner",
          "type": "address"
        },
        {
          "internalType": "address",
          "name": "operator",
          "type": "address"
        }
      ],
      "name": "isApprovedForAll",
      "outputs": [
        {
          "internalType": "bool",
          "name": "",
          "type": "bool"
        }
      ],
      "stateMutability": "view",
      "type": "function"
    },
    {
      "inputs": [
        {
          "internalType": "string",
          "name": "activity",
          "type": "string"
        }
      ],
      "name": "mint",
      "outputs": [],
      "stateMutability": "nonpayable",
      "type": "function"
    },
    {
      "inputs": [],
      "name": "name",
      "outputs": [
        {
          "internalType": "string",
          "name": "",
          "type": "string"
        }
      ],
      "stateMutability": "view",
      "type": "function"
    },
    {
      "inputs": [
        {
          "internalType": "uint256",
          "name": "",
          "type": "uint256"
        }
      ],
      "name": "nftStates",
      "outputs": [
        {
          "internalType": "uint256",
          "name": "ecoScore",
          "type": "uint256"
        },
        {
          "internalType": "string",
          "name": "weatherCondition",
          "type": "string"
        },
        {
          "internalType": "uint256",
          "name": "lastUpdate",
          "type": "uint256"
        },
        {
          "internalType": "string",
          "name": "lastActivity",
          "type": "string"
        }
      ],
      "stateMutability": "view",
      "type": "function"
    },
    {
      "inputs": [],
      "name": "owner",
      "outputs": [
        {
          "internalType": "address",
          "name": "",
          "type": "address"
        }
      ],
      "stateMutability": "view",
      "type": "function"
    },
    {
      "inputs": [
        {
          "internalType": "uint256",
          "name": "tokenId",
          "type": "uint256"
        }
      ],
      "name": "ownerOf",
      "outputs": [
        {
          "internalType": "address",
          "name": "",
          "type": "address"
        }
      ],
      "stateMutability": "view",
      "type": "function"
    },
    {
      "inputs": [],
      "name": "renounceOwnership",
      "outputs": [],
      "stateMutability": "nonpayable",
      "type": "function"
    },
    {
      "inputs": [
        {
          "internalType": "address",
          "name": "from",
          "type": "address"
        },
        {
          "internalType": "address",
          "name": "to",
          "type": "address"
        },
        {
          "internalType": "uint256",
          "name": "tokenId",
          "type": "uint256"
        }
      ],
      "name": "safeTransferFrom",
      "outputs": [],
      "stateMutability": "nonpayable",
      "type": "function"
    },
    {
      "inputs": [
        {
          "internalType": "address",
          "name": "from",
          "type": "address"
        },
        {
          "internalType": "address",
          "name": "to",
          "type": "address"
        },
        {
          "internalType": "uint256",
          "name": "tokenId",
          "type": "uint256"
        },
        {
          "internalType": "bytes",
          "name": "data",
          "type": "bytes"
        }
      ],
      "name": "safeTransferFrom",
      "outputs": [],
      "stateMutability": "nonpayable",
      "type": "function"
    },
    {
      "inputs": [
        {
          "internalType": "address",
          "name": "operator",
          "type": "address"
        },
        {
          "internalType": "bool",
          "name": "approved",
          "type": "bool"
        }
      ],
      "name": "setApprovalForAll",
      "outputs": [],
      "stateMutability": "nonpayable",
      "type": "function"
    },
    {
      "inputs": [
        {
          "internalType": "string",
          "name": "baseURI",
          "type": "string"
        }
      ],
      "name": "setBaseURI",
      "outputs": [],
      "stateMutability": "nonpayable",
      "type": "function"
    },
    {
      "inputs": [
        {
          "internalType": "bytes4",
          "name": "interfaceId",
          "type": "bytes4"
        }
      ],
      "name": "supportsInterface",
      "outputs": [
        {
          "internalType": "bool",
          "name": "",
          "type": "bool"
        }
      ],
      "stateMutability": "view",
      "type": "function"
    },
    {
      "inputs": [],
      "name": "symbol",
      "outputs": [
        {
          "internalType": "string",
          "name": "",
          "type": "string"
        }
      ],
      "stateMutability": "view",
      "type": "function"
    },
    {
      "inputs": [
        {
          "internalType": "uint256",
          "name": "tokenId",
          "type": "uint256"
        }
      ],
      "name": "tokenURI",
      "outputs": [
        {
          "internalType": "string",
          "name": "",
          "type": "string"
        }
      ],
      "stateMutability": "view",
      "type": "function"
    },
    {
      "inputs": [
        {
          "internalType": "address",
          "name": "from",
          "type": "address"
        },
        {
          "internalType": "address",
          "name": "to",
          "type": "address"
        },
        {
          "internalType": "uint256",
          "name": "tokenId",
          "type": "uint256"
        }
      ],
      "name": "transferFrom",
      "outputs": [],
      "stateMutability": "nonpayable",
      "type": "function"
    },
    {
      "inputs": [
        {
          "internalType": "address",
          "name": "newOwner",
          "type": "address"
        }
      ],
      "name": "transferOwnership",
      "outputs": [],
      "stateMutability": "nonpayable",
      "type": "function"
    },
    {
      "inputs": [
        {
          "internalType": "uint256",
          "name": "tokenId",
          "type": "uint256"
        },
        {
          "internalType": "string",
          "name": "weatherCondition",
          "type": "string"
        },
        {
          "internalType": "uint256",
          "name": "ecoScore",
          "type": "uint256"
        },
        {
          "internalType": "string",
          "name": "activity",
          "type": "string"
        }
      ],
      "name": "updateNFTState",
      "outputs": [],
      "stateMutability": "nonpayable",
      "type": "function"
    }
  ],
  "bytecode": "0x60806040523480156200001157600080fd5b50336040518060400160405280600781526020017f45636f536f756c000000000000000000000000000000000000000000000000008152506040518060400160405280600381526020017f45434f000000000000000000000000000000000000000000000000000000000081525081600090816200009091906200047a565b508060019081620000a291906200047a565b505050600073ffffffffffffffffffffffffffffffffffffffff168173ffffffffffffffffffffffffffffffffffffffff16036200011a5760006040517f1e4fbdf7000000000000000000000000000000000000000000000000000000008152600401620001119190620005a6565b60405180910390fd5b6200012b816200013a60201b60201c565b506000600881905550620005c3565b6000600660009054906101000a900473ffffffffffffffffffffffffffffffffffffffff16905081600660006101000a81548173ffffffffffffffffffffffffffffffffffffffff021916908373ffffffffffffffffffffffffffffffffffffffff1602179055508173ffffffffffffffffffffffffffffffffffffffff168173ffffffffffffffffffffffffffffffffffffffff167f8be0079c531659141344cd1fd0a4f28419497f9722a3daafe3b4186f6b6457e060405160405180910390a35050565b600081519050919050565b7f4e487b7100000000000000000000000000000000000000000000000000000000600052604160045260246000fd5b7f4e487b7100000000000000000000000000000000000000000000000000000000600052602260045260246000fd5b600060028204905060018216806200028257607f821691505b6020821081036200029857620002976200023a565b5b50919050565b60008190508160005260206000209050919050565b60006020601f8301049050919050565b600082821b905092915050565b600060088302620003027fffffffffffffffffffffffffffffffffffffffffffffffffffffffffffffffff82620002c3565b6200030e8683620002c3565b95508019841693508086168417925050509392505050565b6000819050919050565b6000819050919050565b60006200035b620003556200034f8462000326565b62000330565b62000326565b9050919050565b6000819050919050565b62000377836200033a565b6200038f620003868262000362565b848454620002d0565b825550505050565b600090565b620003a662000397565b620003b38184846200036c565b505050565b5b81811015620003db57620003cf6000826200039c565b600181019050620003b9565b5050565b601f8211156200042a57620003f4816200029e565b620003ff84620002b3565b810160208510156200040f578190505b620004276200041e85620002b3565b830182620003b8565b50505b505050565b600082821c905092915050565b60006200044f600019846008026200042f565b1980831691505092915050565b60006200046a83836200043c565b9150826002028217905092915050565b620004858262000200565b67ffffffffffffffff811115620004a157620004a06200020b565b5b620004ad825462000269565b620004ba828285620003df565b600060209050601f831160018114620004f25760008415620004dd578287015190505b620004e985826200045c565b86555062000559565b601f19841662000502866200029e565b60005b828110156200052c5784890151825560018201915060208501945060208101905062000505565b868310156200054c578489015162000548601f8916826200043c565b8355505b6001600288020188555050505b505050505050565b600073ffffffffffffffffffffffffffffffffffffffff82169050919050565b60006200058e8262000561565b9050919050565b620005a08162000581565b82525050565b6000602082019050620005bd600083018462000595565b92915050565b61312e80620005d36000396000f3fe608060405234801561001057600080fd5b50600436106101375760003560e01c806370a08231116100b8578063a22cb4651161007c578063a22cb4651461034f578063b88d4fde1461036b578063c87b56dd14610387578063d85d3d27146103b7578063e985e9c5146103d3578063f2fde38b1461040357610137565b806370a08231146102a6578063715018a6146102d65780637447bb04146102e05780638da5cb5b1461031357806395d89b411461033157610137565b80631ece83b0116100ff5780631ece83b0146101f257806323b872dd1461022257806342842e0e1461023e57806355f804b31461025a5780636352211e1461027657610137565b806301ffc9a71461013c57806306fdde031461016c578063081812fc1461018a578063095ea7b3146101ba5780630e69a3bb146101d6575b600080fd5b6101566004803603810190610151919061229e565b61041f565b60405161016391906122e6565b60405180910390f35b610174610501565b6040516101819190612391565b60405180910390f35b6101a4600480360381019061019f91906123e9565b610593565b6040516101b19190612457565b60405180910390f35b6101d460048036038101906101cf919061249e565b6105af565b005b6101f060048036038101906101eb9190612613565b6105c5565b005b61020c600480360381019061020791906123e9565b610704565b6040516102199190612775565b60405180910390f35b61023c60048036038101906102379190612797565b6108e0565b005b61025860048036038101906102539190612797565b6109e2565b005b610274600480360381019061026f91906127ea565b610a02565b005b610290600480360381019061028b91906123e9565b610a1d565b60405161029d9190612457565b60405180910390f35b6102c060048036038101906102bb9190612833565b610a2f565b6040516102cd919061286f565b60405180910390f35b6102de610ae9565b005b6102fa60048036038101906102f591906123e9565b610afd565b60405161030a949392919061288a565b60405180910390f35b61031b610c3d565b6040516103289190612457565b60405180910390f35b610339610c67565b6040516103469190612391565b60405180910390f35b61036960048036038101906103649190612909565b610cf9565b005b610385600480360381019061038091906129ea565b610d0f565b005b6103a1600480360381019061039c91906123e9565b610d34565b6040516103ae9190612391565b60405180910390f35b6103d160048036038101906103cc91906127ea565b610d9d565b005b6103ed60048036038101906103e89190612a6d565b610ecf565b6040516103fa91906122e6565b60405180910390f35b61041d60048036038101906104189190612833565b610f63565b005b60007f80ac58cd000000000000000000000000000000000000000000000000000000007bffffffffffffffffffffffffffffffffffffffffffffffffffffffff1916827bffffffffffffffffffffffffffffffffffffffffffffffffffffffff191614806104ea57507f5b5e139f000000000000000000000000000000000000000000000000000000007bffffffffffffffffffffffffffffffffffffffffffffffffffffffff1916827bffffffffffffffffffffffffffffffffffffffffffffffffffffffff1916145b806104fa57506104f982610fe9565b5b9050919050565b60606000805461051090612adc565b80601f016020809104026020016040519081016040528092919081815260200182805461053c90612adc565b80156105895780601f1061055e57610100808354040283529160200191610589565b820191906000526020600020905b81548152906001019060200180831161056c57829003601f168201915b5050505050905090565b600061059e82611053565b506105a8826110db565b9050919050565b6105c182826105bc611118565b611120565b5050565b6105cd611132565b600073ffffffffffffffffffffffffffffffffffffffff166105ee856111b9565b73ffffffffffffffffffffffffffffffffffffffff1603610644576040517f08c379a000000000000000000000000000000000000000000000000000000000815260040161063b90612b59565b60405180910390fd5b826007600086815260200190815260200160002060010190816106679190612d25565b50816007600086815260200190815260200160002060000181905550426007600086815260200190815260200160002060020181905550806007600086815260200190815260200160002060030190816106c19190612d25565b50837f51443ad9623cf44673e19f5b8d07225c3e5419943baada34a76defdd2cee3bad8484846040516106f693929190612df7565b60405180910390a250505050565b61070c61220a565b600073ffffffffffffffffffffffffffffffffffffffff1661072d836111b9565b73ffffffffffffffffffffffffffffffffffffffff1603610783576040517f08c379a000000000000000000000000000000000000000000000000000000000815260040161077a90612b59565b60405180910390fd5b60076000838152602001908152602001600020604051806080016040529081600082015481526020016001820180546107bb90612adc565b80601f01602080910402602001604051908101604052809291908181526020018280546107e790612adc565b80156108345780601f1061080957610100808354040283529160200191610834565b820191906000526020600020905b81548152906001019060200180831161081757829003601f168201915b505050505081526020016002820154815260200160038201805461085790612adc565b80601f016020809104026020016040519081016040528092919081815260200182805461088390612adc565b80156108d05780601f106108a5576101008083540402835291602001916108d0565b820191906000526020600020905b8154815290600101906020018083116108b357829003601f168201915b5050505050815250509050919050565b600073ffffffffffffffffffffffffffffffffffffffff168273ffffffffffffffffffffffffffffffffffffffff16036109525760006040517f64a0ae920000000000000000000000000000000000000000000000000000000081526004016109499190612457565b60405180910390fd5b60006109668383610961611118565b6111f6565b90508373ffffffffffffffffffffffffffffffffffffffff168173ffffffffffffffffffffffffffffffffffffffff16146109dc578382826040517f64283d7b0000000000000000000000000000000000000000000000000000000081526004016109d393929190612e3c565b60405180910390fd5b50505050565b6109fd83838360405180602001604052806000815250610d0f565b505050565b610a0a611132565b8060099081610a199190612d25565b5050565b6000610a2882611053565b9050919050565b60008073ffffffffffffffffffffffffffffffffffffffff168273ffffffffffffffffffffffffffffffffffffffff1603610aa25760006040517f89c62b64000000000000000000000000000000000000000000000000000000008152600401610a999190612457565b60405180910390fd5b600360008373ffffffffffffffffffffffffffffffffffffffff1673ffffffffffffffffffffffffffffffffffffffff168152602001908152602001600020549050919050565b610af1611132565b610afb6000611410565b565b6007602052806000526040600020600091509050806000015490806001018054610b2690612adc565b80601f0160208091040260200160405190810160405280929190818152602001828054610b5290612adc565b8015610b9f5780601f10610b7457610100808354040283529160200191610b9f565b820191906000526020600020905b815481529060010190602001808311610b8257829003601f168201915b505050505090806002015490806003018054610bba90612adc565b80601f0160208091040260200160405190810160405280929190818152602001828054610be690612adc565b8015610c335780601f10610c0857610100808354040283529160200191610c33565b820191906000526020600020905b815481529060010190602001808311610c1657829003601f168201915b5050505050905084565b6000600660009054906101000a900473ffffffffffffffffffffffffffffffffffffffff16905090565b606060018054610c7690612adc565b80601f0160208091040260200160405190810160405280929190818152602001828054610ca290612adc565b8015610cef5780601f10610cc457610100808354040283529160200191610cef565b820191906000526020600020905b815481529060010190602001808311610cd257829003601f168201915b5050505050905090565b610d0b610d04611118565b83836114d6565b5050565b610d1a8484846108e0565b610d2e610d25611118565b85858585611645565b50505050565b6060610d3f82611053565b506000610d4a6117f6565b90506000815111610d6a5760405180602001604052806000815250610d95565b80610d7484611888565b604051602001610d85929190612eaf565b6040516020818303038152906040525b915050919050565b6000600854905060086000815480929190610db790612f02565b9190505550610dc63382611956565b60006040518060400160405280600581526020017f73756e6e7900000000000000000000000000000000000000000000000000000081525090506000610e0c8285611974565b905060405180608001604052808281526020018381526020014281526020018581525060076000858152602001908152602001600020600082015181600001556020820151816001019081610e619190612d25565b50604082015181600201556060820151816003019081610e819190612d25565b50905050823373ffffffffffffffffffffffffffffffffffffffff167f4cc0a9c4a99ddc700de1af2c9f916a7cbfdb71f14801ccff94061ad1ef8a804060405160405180910390a350505050565b6000600560008473ffffffffffffffffffffffffffffffffffffffff1673ffffffffffffffffffffffffffffffffffffffff16815260200190815260200160002060008373ffffffffffffffffffffffffffffffffffffffff1673ffffffffffffffffffffffffffffffffffffffff16815260200190815260200160002060009054906101000a900460ff16905092915050565b610f6b611132565b600073ffffffffffffffffffffffffffffffffffffffff168173ffffffffffffffffffffffffffffffffffffffff1603610fdd5760006040517f1e4fbdf7000000000000000000000000000000000000000000000000000000008152600401610fd49190612457565b60405180910390fd5b610fe681611410565b50565b60007f01ffc9a7000000000000000000000000000000000000000000000000000000007bffffffffffffffffffffffffffffffffffffffffffffffffffffffff1916827bffffffffffffffffffffffffffffffffffffffffffffffffffffffff1916149050919050565b60008061105f836111b9565b9050600073ffffffffffffffffffffffffffffffffffffffff168173ffffffffffffffffffffffffffffffffffffffff16036110d257826040517f7e2732890000000000000000000000000000000000000000000000000000000081526004016110c9919061286f565b60405180910390fd5b80915050919050565b60006004600083815260200190815260200160002060009054906101000a900473ffffffffffffffffffffffffffffffffffffffff169050919050565b600033905090565b61112d8383836001611c50565b505050565b61113a611118565b73ffffffffffffffffffffffffffffffffffffffff16611158610c3d565b73ffffffffffffffffffffffffffffffffffffffff16146111b75761117b611118565b6040517f118cdaa70000000000000000000000000000000000000000000000000000000081526004016111ae9190612457565b60405180910390fd5b565b60006002600083815260200190815260200160002060009054906101000a900473ffffffffffffffffffffffffffffffffffffffff169050919050565b600080611202846111b9565b9050600073ffffffffffffffffffffffffffffffffffffffff168373ffffffffffffffffffffffffffffffffffffffff161461124457611243818486611e15565b5b600073ffffffffffffffffffffffffffffffffffffffff168173ffffffffffffffffffffffffffffffffffffffff16146112d557611286600085600080611c50565b6001600360008373ffffffffffffffffffffffffffffffffffffffff1673ffffffffffffffffffffffffffffffffffffffff168152602001908152602001600020600082825403925050819055505b600073ffffffffffffffffffffffffffffffffffffffff168573ffffffffffffffffffffffffffffffffffffffff1614611358576001600360008773ffffffffffffffffffffffffffffffffffffffff1673ffffffffffffffffffffffffffffffffffffffff168152602001908152602001600020600082825401925050819055505b846002600086815260200190815260200160002060006101000a81548173ffffffffffffffffffffffffffffffffffffffff021916908373ffffffffffffffffffffffffffffffffffffffff160217905550838573ffffffffffffffffffffffffffffffffffffffff168273ffffffffffffffffffffffffffffffffffffffff167fddf252ad1be2c89b69c2b068fc378daa952ba7f163c4a11628f55a4df523b3ef60405160405180910390a4809150509392505050565b6000600660009054906101000a900473ffffffffffffffffffffffffffffffffffffffff16905081600660006101000a81548173ffffffffffffffffffffffffffffffffffffffff021916908373ffffffffffffffffffffffffffffffffffffffff1602179055508173ffffffffffffffffffffffffffffffffffffffff168173ffffffffffffffffffffffffffffffffffffffff167f8be0079c531659141344cd1fd0a4f28419497f9722a3daafe3b4186f6b6457e060405160405180910390a35050565b600073ffffffffffffffffffffffffffffffffffffffff168273ffffffffffffffffffffffffffffffffffffffff160361154757816040517f5b08ba1800000000000000000000000000000000000000000000000000000000815260040161153e9190612457565b60405180910390fd5b80600560008573ffffffffffffffffffffffffffffffffffffffff1673ffffffffffffffffffffffffffffffffffffffff16815260200190815260200160002060008473ffffffffffffffffffffffffffffffffffffffff1673ffffffffffffffffffffffffffffffffffffffff16815260200190815260200160002060006101000a81548160ff0219169083151502179055508173ffffffffffffffffffffffffffffffffffffffff168373ffffffffffffffffffffffffffffffffffffffff167f17307eab39ab6107e8899845ad3d59bd9653f200f220920489ca2b5937696c318360405161163891906122e6565b60405180910390a3505050565b60008373ffffffffffffffffffffffffffffffffffffffff163b11156117ef578273ffffffffffffffffffffffffffffffffffffffff1663150b7a02868685856040518563ffffffff1660e01b81526004016116a49493929190612f9f565b6020604051808303816000875af19250505080156116e057506040513d601f19601f820116820180604052508101906116dd9190613000565b60015b611764573d8060008114611710576040519150601f19603f3d011682016040523d82523d6000602084013e611715565b606091505b50600081510361175c57836040517f64a0ae920000000000000000000000000000000000000000000000000000000081526004016117539190612457565b60405180910390fd5b805181602001fd5b63150b7a0260e01b7bffffffffffffffffffffffffffffffffffffffffffffffffffffffff1916817bffffffffffffffffffffffffffffffffffffffffffffffffffffffff1916146117ed57836040517f64a0ae920000000000000000000000000000000000000000000000000000000081526004016117e49190612457565b60405180910390fd5b505b5050505050565b60606009805461180590612adc565b80601f016020809104026020016040519081016040528092919081815260200182805461183190612adc565b801561187e5780601f106118535761010080835404028352916020019161187e565b820191906000526020600020905b81548152906001019060200180831161186157829003601f168201915b5050505050905090565b60606000600161189784611ed9565b01905060008167ffffffffffffffff8111156118b6576118b56124e8565b5b6040519080825280601f01601f1916602001820160405280156118e85781602001600182028036833780820191505090505b509050600082602001820190505b60011561194b578080600190039150507f3031323334353637383961626364656600000000000000000000000000000000600a86061a8153600a858161193f5761193e61302d565b5b049450600085036118f6575b819350505050919050565b61197082826040518060200160405280600081525061202c565b5050565b600080606490506000838051906020012090506040518060400160405280600681526020017f62696b696e6700000000000000000000000000000000000000000000000000008152508051906020012081036119e957606480836119d8919061305c565b6119e2919061309e565b9150611b75565b6040518060400160405280600781526020017f77616c6b696e6700000000000000000000000000000000000000000000000000815250805190602001208103611a4c576064605083611a3b919061305c565b611a45919061309e565b9150611b74565b6040518060400160405280601081526020017f7075626c69635f7472616e73706f727400000000000000000000000000000000815250805190602001208103611aaf576064605a83611a9e919061305c565b611aa8919061309e565b9150611b73565b6040518060400160405280600981526020017f72656379636c696e670000000000000000000000000000000000000000000000815250805190602001208103611b12576064604683611b01919061305c565b611b0b919061309e565b9150611b72565b6040518060400160405280600881526020017f706c616e74696e67000000000000000000000000000000000000000000000000815250805190602001208103611b71576064609683611b64919061305c565b611b6e919061309e565b91505b5b5b5b5b6000858051906020012090506040518060400160405280600581526020017f73756e6e79000000000000000000000000000000000000000000000000000000815250805190602001208103611be4576064607884611bd3919061305c565b611bdd919061309e565b9250611c44565b6040518060400160405280600581526020017f7261696e79000000000000000000000000000000000000000000000000000000815250805190602001208103611c43576064609684611c36919061305c565b611c40919061309e565b92505b5b82935050505092915050565b8080611c895750600073ffffffffffffffffffffffffffffffffffffffff168273ffffffffffffffffffffffffffffffffffffffff1614155b15611dbd576000611c9984611053565b9050600073ffffffffffffffffffffffffffffffffffffffff168373ffffffffffffffffffffffffffffffffffffffff1614158015611d0457508273ffffffffffffffffffffffffffffffffffffffff168173ffffffffffffffffffffffffffffffffffffffff1614155b8015611d175750611d158184610ecf565b155b15611d5957826040517fa9fbf51f000000000000000000000000000000000000000000000000000000008152600401611d509190612457565b60405180910390fd5b8115611dbb57838573ffffffffffffffffffffffffffffffffffffffff168273ffffffffffffffffffffffffffffffffffffffff167f8c5be1e5ebec7d5bd14f71427d1e84f3dd0314c0f7b2291e5b200ac8c7c3b92560405160405180910390a45b505b836004600085815260200190815260200160002060006101000a81548173ffffffffffffffffffffffffffffffffffffffff021916908373ffffffffffffffffffffffffffffffffffffffff16021790555050505050565b611e20838383612050565b611ed457600073ffffffffffffffffffffffffffffffffffffffff168373ffffffffffffffffffffffffffffffffffffffff1603611e9557806040517f7e273289000000000000000000000000000000000000000000000000000000008152600401611e8c919061286f565b60405180910390fd5b81816040517f177e802f000000000000000000000000000000000000000000000000000000008152600401611ecb9291906130cf565b60405180910390fd5b505050565b600080600090507a184f03e93ff9f4daa797ed6e38ed64bf6a1f0100000000000000008310611f37577a184f03e93ff9f4daa797ed6e38ed64bf6a1f0100000000000000008381611f2d57611f2c61302d565b5b0492506040810190505b6d04ee2d6d415b85acef81000000008310611f74576d04ee2d6d415b85acef81000000008381611f6a57611f6961302d565b5b0492506020810190505b662386f26fc100008310611fa357662386f26fc100008381611f9957611f9861302d565b5b0492506010810190505b6305f5e1008310611fcc576305f5e1008381611fc257611fc161302d565b5b0492506008810190505b6127108310611ff1576127108381611fe757611fe661302d565b5b0492506004810190505b60648310612014576064838161200a5761200961302d565b5b0492506002810190505b600a8310612023576001810190505b80915050919050565b6120368383612111565b61204b612041611118565b6000858585611645565b505050565b60008073ffffffffffffffffffffffffffffffffffffffff168373ffffffffffffffffffffffffffffffffffffffff161415801561210857508273ffffffffffffffffffffffffffffffffffffffff168473ffffffffffffffffffffffffffffffffffffffff1614806120c957506120c88484610ecf565b5b8061210757508273ffffffffffffffffffffffffffffffffffffffff166120ef836110db565b73ffffffffffffffffffffffffffffffffffffffff16145b5b90509392505050565b600073ffffffffffffffffffffffffffffffffffffffff168273ffffffffffffffffffffffffffffffffffffffff16036121835760006040517f64a0ae9200000000000000000000000000000000000000000000000000000000815260040161217a9190612457565b60405180910390fd5b6000612191838360006111f6565b9050600073ffffffffffffffffffffffffffffffffffffffff168173ffffffffffffffffffffffffffffffffffffffff16146122055760006040517f73c6ac6e0000000000000000000000000000000000000000000000000000000081526004016121fc9190612457565b60405180910390fd5b505050565b6040518060800160405280600081526020016060815260200160008152602001606081525090565b6000604051905090565b600080fd5b600080fd5b60007fffffffff0000000000000000000000000000000000000000000000000000000082169050919050565b61227b81612246565b811461228657600080fd5b50565b60008135905061229881612272565b92915050565b6000602082840312156122b4576122b361223c565b5b60006122c284828501612289565b91505092915050565b60008115159050919050565b6122e0816122cb565b82525050565b60006020820190506122fb60008301846122d7565b92915050565b600081519050919050565b600082825260208201905092915050565b60005b8381101561233b578082015181840152602081019050612320565b60008484015250505050565b6000601f19601f8301169050919050565b600061236382612301565b61236d818561230c565b935061237d81856020860161231d565b61238681612347565b840191505092915050565b600060208201905081810360008301526123ab8184612358565b905092915050565b6000819050919050565b6123c6816123b3565b81146123d157600080fd5b50565b6000813590506123e3816123bd565b92915050565b6000602082840312156123ff576123fe61223c565b5b600061240d848285016123d4565b91505092915050565b600073ffffffffffffffffffffffffffffffffffffffff82169050919050565b600061244182612416565b9050919050565b61245181612436565b82525050565b600060208201905061246c6000830184612448565b92915050565b61247b81612436565b811461248657600080fd5b50565b60008135905061249881612472565b92915050565b600080604083850312156124b5576124b461223c565b5b60006124c385828601612489565b92505060206124d4858286016123d4565b9150509250929050565b600080fd5b600080fd5b7f4e487b7100000000000000000000000000000000000000000000000000000000600052604160045260246000fd5b61252082612347565b810181811067ffffffffffffffff8211171561253f5761253e6124e8565b5b80604052505050565b6000612552612232565b905061255e8282612517565b919050565b600067ffffffffffffffff82111561257e5761257d6124e8565b5b61258782612347565b9050602081019050919050565b82818337600083830152505050565b60006125b66125b184612563565b612548565b9050828152602081018484840111156125d2576125d16124e3565b5b6125dd848285612594565b509392505050565b600082601f8301126125fa576125f96124de565b5b813561260a8482602086016125a3565b91505092915050565b6000806000806080858703121561262d5761262c61223c565b5b600061263b878288016123d4565b945050602085013567ffffffffffffffff81111561265c5761265b612241565b5b612668878288016125e5565b9350506040612679878288016123d4565b925050606085013567ffffffffffffffff81111561269a57612699612241565b5b6126a6878288016125e5565b91505092959194509250565b6126bb816123b3565b82525050565b600082825260208201905092915050565b60006126dd82612301565b6126e781856126c1565b93506126f781856020860161231d565b61270081612347565b840191505092915050565b600060808301600083015161272360008601826126b2565b506020830151848203602086015261273b82826126d2565b915050604083015161275060408601826126b2565b506060830151848203606086015261276882826126d2565b9150508091505092915050565b6000602082019050818103600083015261278f818461270b565b905092915050565b6000806000606084860312156127b0576127af61223c565b5b60006127be86828701612489565b93505060206127cf86828701612489565b92505060406127e0868287016123d4565b9150509250925092565b600060208284031215612800576127ff61223c565b5b600082013567ffffffffffffffff81111561281e5761281d612241565b5b61282a848285016125e5565b91505092915050565b6000602082840312156128495761284861223c565b5b600061285784828501612489565b91505092915050565b612869816123b3565b82525050565b60006020820190506128846000830184612860565b92915050565b600060808201905061289f6000830187612860565b81810360208301526128b18186612358565b90506128c06040830185612860565b81810360608301526128d28184612358565b905095945050505050565b6128e6816122cb565b81146128f157600080fd5b50565b600081359050612903816128dd565b92915050565b600080604083850312156129205761291f61223c565b5b600061292e85828601612489565b925050602061293f858286016128f4565b9150509250929050565b600067ffffffffffffffff821115612964576129636124e8565b5b61296d82612347565b9050602081019050919050565b600061298d61298884612949565b612548565b9050828152602081018484840111156129a9576129a86124e3565b5b6129b4848285612594565b509392505050565b600082601f8301126129d1576129d06124de565b5b81356129e184826020860161297a565b91505092915050565b60008060008060808587031215612a0457612a0361223c565b5b6000612a1287828801612489565b9450506020612a2387828801612489565b9350506040612a34878288016123d4565b925050606085013567ffffffffffffffff811115612a5557612a54612241565b5b612a61878288016129bc565b91505092959194509250565b60008060408385031215612a8457612a8361223c565b5b6000612a9285828601612489565b9250506020612aa385828601612489565b9150509250929050565b7f4e487b7100000000000000000000000000000000000000000000000000000000600052602260045260246000fd5b60006002820490506001821680612af457607f821691505b602082108103612b0757612b06612aad565b5b50919050565b7f4e465420646f6573206e6f742065786973740000000000000000000000000000600082015250565b6000612b4360128361230c565b9150612b4e82612b0d565b602082019050919050565b60006020820190508181036000830152612b7281612b36565b9050919050565b60008190508160005260206000209050919050565b60006020601f8301049050919050565b600082821b905092915050565b600060088302612bdb7fffffffffffffffffffffffffffffffffffffffffffffffffffffffffffffffff82612b9e565b612be58683612b9e565b95508019841693508086168417925050509392505050565b6000819050919050565b6000612c22612c1d612c18846123b3565b612bfd565b6123b3565b9050919050565b6000819050919050565b612c3c83612c07565b612c50612c4882612c29565b848454612bab565b825550505050565b600090565b612c65612c58565b612c70818484612c33565b505050565b5b81811015612c9457612c89600082612c5d565b600181019050612c76565b5050565b601f821115612cd957612caa81612b79565b612cb384612b8e565b81016020851015612cc2578190505b612cd6612cce85612b8e565b830182612c75565b50505b505050565b600082821c905092915050565b6000612cfc60001984600802612cde565b1980831691505092915050565b6000612d158383612ceb565b9150826002028217905092915050565b612d2e82612301565b67ffffffffffffffff811115612d4757612d466124e8565b5b612d518254612adc565b612d5c828285612c98565b600060209050601f831160018114612d8f5760008415612d7d578287015190505b612d878582612d09565b865550612def565b601f198416612d9d86612b79565b60005b82811015612dc557848901518255600182019150602085019450602081019050612da0565b86831015612de25784890151612dde601f891682612ceb565b8355505b6001600288020188555050505b505050505050565b60006060820190508181036000830152612e118186612358565b9050612e206020830185612860565b8181036040830152612e328184612358565b9050949350505050565b6000606082019050612e516000830186612448565b612e5e6020830185612860565b612e6b6040830184612448565b949350505050565b600081905092915050565b6000612e8982612301565b612e938185612e73565b9350612ea381856020860161231d565b80840191505092915050565b6000612ebb8285612e7e565b9150612ec78284612e7e565b91508190509392505050565b7f4e487b7100000000000000000000000000000000000000000000000000000000600052601160045260246000fd5b6000612f0d826123b3565b91507fffffffffffffffffffffffffffffffffffffffffffffffffffffffffffffffff8203612f3f57612f3e612ed3565b5b600182019050919050565b600081519050919050565b600082825260208201905092915050565b6000612f7182612f4a565b612f7b8185612f55565b9350612f8b81856020860161231d565b612f9481612347565b840191505092915050565b6000608082019050612fb46000830187612448565b612fc16020830186612448565b612fce6040830185612860565b8181036060830152612fe08184612f66565b905095945050505050565b600081519050612ffa81612272565b92915050565b6000602082840312156130165761301561223c565b5b600061302484828501612feb565b91505092915050565b7f4e487b7100000000000000000000000000000000000000000000000000000000600052601260045260246000fd5b6000613067826123b3565b9150613072836123b3565b9250828202613080816123b3565b9150828204841483151761309757613096612ed3565b5b5092915050565b60006130a9826123b3565b91506130b4836123b3565b9250826130c4576130c361302d565b5b828204905092915050565b60006040820190506130e46000830185612448565b6130f16020830184612860565b939250505056fea264697066735822122099932bb1b17f1f185bbb3b6579132d4c0a3f4ec6e6ce4827c76e8d2b38f7adf064736f6c63430008140033",
  "linkReferences": {},
  "deployedLinkReferences": {}
}